:020000040800F2
:1000000000000220452600085D0D00085F0D000875
:10001000610D0008630D0008650D00080000000078
:10002000000000000000000000000000670D000854
:10003000690D0008000000006B0D00086D0D000840
:1000400095260008952600089526000895260008A4
:100050009526000895260008490600089526000800
:100060009526000895260008952600089526000884
:100070009526000895260008952600089526000874
:10008000750D00089526000895260008952600089D
:100090009526000895260008952600089526000854
:1000A0009526000895260008952600089526000844
:1000B0009526000895260008952600089526000834
:1000C0009526000895260008952600089526000824
:1000D0009526000895260008952600089526000814
:1000E0009526000895260008952600089526000804
:1000F00095260008952600089526000895260008F4
:1001000095260008952600089526000895260008E3
:1001100095260008952600089526000895260008D3
:1001200095260008952600089526000895260008C3
:100130009526000800000000000000009526000839
:1001400095260008952600089526000895260008A3
:100150009526000895260008952600089526000893
:100160009526000895260008952600089526000883
:100170009526000895260008952600080000000036
:1001800000000000952600080000000000000000AC
:1001900095260008000000000000000095260008D9
:1001A000000000000000000000000000952600088C
:1001B0009526000895260008952600089526000833
:0401C0009526000878
:1001C40010B5054C237833B9044B13B10448AFF38D
:1001D40000800123237010BD146000200000000083
:1001E400F026000808B5034B1BB103490348AFF3DD
:1001F400008008BD0000000018600020F026000800
:1002040053B94AB9002908BF00281CBF4FF0FF3179
:100214004FF0FF3000F088B9ADF1080C6DE904CE61
:1002240000F006F8DDF804E0DDE9022304B07047CD
:100234002DE9F047089D8E4604468846002B4AD196
:100244008A42174662D9B2FA82F64EB1C6F1200349
:1002540001FA06F820FA03F3B74043EA0808B44069
:100264004FEA174E1FFA87FCB8FBFEF1230C0EFB76
:10027400118843EA084301FB0CF29A4209D9FB189E
:1002840001F1FF3080F0EA809A4240F2E7800239BF
:100294003B449A1AA3B2B2FBFEF00EFB102243EACF
:1002A400024300FB0CFC9C4509D9FB1800F1FF320A
:1002B40080F0D6809C4540F2D3803B44023840EA2B
:1002C4000140A3EB0C0300211DB1F3400022C5E95A
:1002D4000032BDE8F0878B4205D90DB1C5E90001B4
:1002E40000210846F5E7B3FA83F1002946D17345A6
:1002F40002D3824200F20581841A6EEB03020120CC
:100304009046002DE5D0C5E90048E2E7002A00F058
:100314009080B2FA82F6002E40F0A4808A1A030C70
:100324004FEA174E80B2BCB20121B2FBFEFC0EFBB9
:100334001C2243EA024304FB0CF29A4207D9FB183D
:100344000CF1FF3802D29A4200F2E080C4469B1AB4
:10035400B3FBFEF20EFB123340EA034302FB04F448
:100364009C4207D9FB1802F1FF3002D29C4200F2F2
:10037400CA8002461B1B42EA0C40A5E7C1F12006D5
:100384008B4022FA06F71F430EFA01F420FA06F313
:100394002EFA06FE4FEA1749234300FA01F81FFA22
:1003A40087FCBEFBF9F01C0C09FB10EE44EA0E447A
:1003B40000FB0CFEA64502FA01F209D93C1900F132
:1003C400FF3A80F09C80A64540F2998002383C4474
:1003D400A4EB0E041FFA83FEB4FBF9F309FB1344E8
:1003E4004EEA044403FB0CFCA44508D93C1903F170
:1003F400FF3E80F08280A4457FD9023B3C4443EA1F
:100404000040A4EB0C04A0FB02EC64457346E146F7
:1004140062D35FD05DB1B8EB030264EB090404FA64
:1004240006F622FA01F31E43CC40C5E9006400211C
:100434004FE7B1FBF2FC010C41EA0E4180B240EA05
:1004440001423B4638463C46B846BE462026B1FBF0
:10045400F7F1A2EB080241EA0C4166E7014618E70E
:1004640010462CE7C6F120022EFA02F3B740B14041
:1004740020FA02F24FEA174E0A43B3FBFEF8BCB26D
:100484000EFB1833110C41EA034108FB04F9B04098
:1004940089454FEA104380B23ED9791808F1FF3CF0
:1004A40001D289451FD8A1EB0901B1FBFEF909FB73
:1004B40004F80EFB191192B242EA0142424529D2D4
:1004C400BA1809F1FF31C4D24245C2D2A9F10201DE
:1004D4003A44BEE7F0459DD2BEEB02036CEB070C39
:1004E4000138E14696E7A7EB09094944A8F1020C53
:1004F400B1FBFEF909FB04F8DBE773467FE75046DE
:1005040066E70846FDE63B44023A33E7ACF1020CE9
:100514003B441CE749469CE7A1EB0901C446B1FBF7
:10052400FEF909FB04F8C4E7704700BF2DE9F04F5A
:1005340089B00024039404940594069407940094C9
:100544002F4B1A6B42F080021A631A6B02F080027E
:100554000092009A01941A6B42F001021A631A6B1A
:1005640002F001020192019A02941A6B42F0020213
:100574001A631B6B03F002030293029B4FF4404B7C
:10058400CDF80CB001260496DFF87CA003A95046F0
:1005940001F060FC4FF44079CDF80C90DFF86C80EA
:1005A40003A9404601F056FC4FF410470397154D3C
:1005B40003A9284601F04EFC22465946504601F054
:1005C40039FD22464946404601F034FD224639466B
:1005D400284601F02FFD03964FF4881304930596E3
:1005E40003A9284601F036FC22460221062001F028
:1005F400A3FF062001F0B0FF09B0BDE8F08F00BFF3
:10060400003802400000024000080240000402409A
:1006140000B583B000210191094B1A6B42F400121A
:100624001A631B6B03F400130193019B0A46102009
:1006340001F082FF102001F08FFF03B05DF804FB8E
:100644000038024008B5012001F0FCFC01F0E8FF8D
:10065400424B1B68C01AC82800D808BD01F0E0FF4F
:100664003E4B18603E4B1A68D36823F40073D36082
:100674003C4801F00CFE3C490A6801323B4BA3FBA9
:1006840002039B0803EB4303A2EB43030B60052B1C
:1006940012D8DFE803F0031827364554012000F090
:1006A4009BFA334800F08CFA4FF48063314A1268A5
:1006B40031492C4801F0B6FD294B1A68D36843F43C
:1006C4000073D360C9E7012000F086FA2B4800F0DC
:1006D40077FA4FF48063274A12682949214801F0C8
:1006E400A1FDE9E7012000F077FA264800F068FA56
:1006F4004FF480631F4A126823491A4801F092FD9F
:10070400DAE7012000F068FA204800F059FA4FF4C3
:100714008063184A12681E49124801F083FDCBE732
:10072400012000F059FA1B4800F04AFA4FF48063A4
:10073400104A126818490B4801F074FDBCE7012007
:1007440000F04AFA154800F03BFA4FF48063094A76
:1007540012681349034801F065FDADE730600020DD
:10076400E06000203860002034600020ABAAAAAA10
:100774000827000800000020085000201027000867
:10078400084000201C270008083000202827000803
:10079400082000203027000808100020382700080F
:1007A4000800002072B6FEE700B58FB000230A935C
:1007B4000B930C930D930893099301930293039362
:1007C400049305930693079336484FF080420260E2
:1007D40043608360344A1268013AC26003618361F2
:1007E40000F094FC002850D14FF480530A930AA9D6
:1007F4002C4800F0F1FD002849D12A4800F0B2FC51
:10080400002846D100230893099308A9254800F03D
:1008140075FF00283FD100220192029203920592B3
:1008240001A9204800F02EFD002836D100230093B2
:100834001E4A116B41F400111163126B02F4001291
:100844000092009A1A481B4A02604FF0C06242604C
:1008540040228260C3604FF4806202614FF4805290
:1008640042614FF4804282614FF48072C2614FF45E
:1008740000320262436201F06FFC80B9094A0C4BFA
:1008840053629A630FB05DF804FBFFF78BFFFFF729
:1008940089FFFFF787FFFFF785FFFFF783FFFFF768
:1008A40081FF00BFE0600020040000200038024007
:1008B400386000208860024000B58FB000230A939E
:1008C4000B930C930D930893099301930293039351
:1008D40004930593069307931E481F4A02604360DE
:1008E400836040F6FF72C2600361836100F00EFC16
:1008F40028BB4FF480530A930AA9164800F06CFDF4
:10090400F8B9144800F05AFCE8B900230893099395
:1009140008A9104800F0F2FEB8B96023019300233F
:10092400029303930593082201A90A4800F0D9FC15
:1009340068B9084800F08CFA0FB05DF804FBFFF7C3
:1009440031FFFFF72FFFFFF72DFFFFF72BFFFFF717
:1009540029FF00BF986000200004004000B595B056
:100964003422002107A801F094FE0023029303938C
:100974000493059306930093194A116C41F0805136
:100984001164126C02F080520092009A019315498E
:100994000A6822F4404242F480420A600A6802F47F
:1009A40040420192019A0222079201220A921022E5
:1009B4000B920D9307A801F02BF868B90F2302934B
:1009C4000021039104910591069102A800F0DCFE38
:1009D40020B915B05DF804FBFFF7E4FEFFF7E2FE73
:1009E400003802400070004008B501F0F3FDFFF745
:1009F400B5FFFFF79BFDFFF70BFEFFF7D5FEFFF7F3
:100A04005BFF00F071F90C2000F0E6F8012000F023
:100A1400E3F8022000F0E0F808210C4800F0ECFDB7
:100A24000B4C0021204600F065FD4FF48063094A19
:100A340012680949094801F0F5FB094800F0C0F8BB
:100A44002268D36843F40073D360FEE79860002003
:100A5400E060002000000020082000203860002012
:100A64000827000882B000EB40000023019304E053
:100A740000BF00BF019B01330193019B8342F7D365
:100A840002B0704710B51420FFF7ECFF094CA369BE
:100A940043F40043A3611420FFF7E4FFA36943F088
:100AA4000043A3611420FFF7DDFFA36943F400436F
:100AB400A36110BD0008024010B504463D4A936985
:100AC40043F48043936110F0800F41D13A4A936913
:100AD40043F00043936114F0400F40D0364A9369C9
:100AE40043F48053936114F0200F3ED0334A93694A
:100AF40043F40073936114F0100F3CD02F4A9369B0
:100B040043F480739361FFF7BDFF14F0080F38D0EE
:100B1400294A936943F40043936114F0040F36D0D7
:100B2400254A936943F48053936114F0020F34D03F
:100B3400224A936943F40073936114F0010F32D095
:100B44001E4A936943F480739361FFF79BFF10BDC2
:100B5400A2F50062936943F400439361BBE7164A2C
:100B6400936943F080539361BDE7144A936943F05A
:100B740000739361BFE7114A936943F080739361F3
:100B8400C1E70D4A936943F000439361C5E70A4AFC
:100B9400936943F080539361C7E7084A936943F02C
:100BA40000739361C9E7054A936943F080739361C5
:100BB400CBE700BF000802400000024000040240EE
:100BC40038B50546002403E0FFF776FF0134E4B2AC
:100BD400285D0028F8D138BD10B504463F4A936912
:100BE40043F08043936110F0800F45D13C4A9369F0
:100BF40043F00043936114F0400F44D0384A9369A2
:100C040043F48053936114F0200F42D0354A936922
:100C140043F40073936114F0100F40D0314A936988
:100C240043F480739361FFF72DFF14F0080F3CD059
:100C34002B4A936943F40043936114F0040F3AD0B0
:100C4400274A936943F48053936114F0020F38D018
:100C5400244A936943F40073936114F0010F36D06E
:100C6400204A936943F480739361FFF70BFF40F6C6
:100C7400B830FFF7F7FE10BDA2F50062936943F4A4
:100C840000439361B7E7164A936943F08053936135
:100C9400B9E7144A936943F000739361BBE7114ABF
:100CA400936943F080739361BDE70D4A936943F000
:100CB40000439361C1E70A4A936943F08053936107
:100CC400C3E7084A936943F000739361C5E7054A93
:100CD400936943F080739361C7E700BF0008024043
:100CE400000002400004024008B5194B1A6B42F0A0
:100CF40001021A631A6B42F002021A631A6B42F081
:100D040004021A63134A136843F08243136002F522
:100D14008062136843F4A023136002F580621368B1
:100D240043F0A043136047F23050FFF79BFE33209B
:100D3400FFF752FF3220FFF74FFF0C20FFF74CFF65
:100D44002820FFF749FF0120FFF746FF08BD00BF39
:100D54000038024000000240FEE7FEE7FEE7FEE73F
:100D6400FEE770477047704708B501F04DFC08BDB9
:100D740008B5024801F09EFA08BD00BF38600020A3
:100D840082B0002100910B4B5A6C42F480425A64A9
:100D94005A6C02F480420092009A01911A6C42F05B
:100DA40080521A641B6C03F080530193019B02B0C0
:100DB400704700BF0038024010B582B00368B3F139
:100DC400804F04D01E4A93422CD002B010BD04467A
:100DD400002300931B4A116C41F001011164126C51
:100DE40002F001020092009A1748184A02604FF07C
:100DF400C06242608360C3604FF4806202614FF45A
:100E0400805242614FF480428261C3610362436253
:100E140001F0A2F918B90C4B63629C63D5E7FFF7A4
:100E2400C1FCF8E700230193064B1A6C42F002025E
:100E34001A641B6C03F002030193019BC5E700BF16
:100E440000040040003802403860002088600240FE
:100E540000B587B000230193029303930493059391
:100E640002680E4B9A4202D007B05DF804FB0023DF
:100E740000930B4B1A6B42F002021A631B6B03F0D4
:100E840002030093009B0123019302230293059321
:100E940001A9044800F0DEFFE6E700BF00040040BB
:100EA400003802400004024030B4036A026A22F0AF
:100EB400010202624268846924F0730C0C6844EAFB
:100EC4000C0423F0020C8B6843EA0C03114DA84276
:100ED40003D005F58065A84205D123F00803CD6849
:100EE4002B4323F004030B4DA84203D005F5806582
:100EF400A84207D122F440724D6945EA020C8A697E
:100F040042EA0C02426084614A684263036230BC74
:100F1400704700BF0000014030B4036A026A22F443
:100F2400807202624268C46924F0730C0C6844EA5B
:100F34000C0523F400738C6843EA0423114CA0428B
:100F440003D004F58064A04206D123F40063CC6886
:100F540043EA042323F480630A4CA04203D004F53B
:100F64008064A04207D122F440524C6942EA041240
:100F74008C6942EA04124260C5614A68C263036232
:100F840030BC70470000014030B4036A026A22F4A6
:100F9400805202624468C26922F4E6420D6842EA61
:100FA400052223F400538D6843EA0533094DA84212
:100FB40003D005F58065A84204D124F480444D692A
:100FC40044EA85144460C2614A680264036230BC26
:100FD400704700BF0000014010B4036A046A24F0A3
:100FE40001040462846924F0F00C4CEA021223F038
:100FF4000A030B43826103625DF8044B704710B42B
:10100400036A046A24F010040462846924F4704CB2
:101014004CEA023223F0A00343EA01138261036223
:101024005DF8044B7047836823F070030B4343F06F
:101034000703836070477047704700000368324AB3
:10104400904212D0B0F1804F0FD0A2F57C42904272
:101054000BD002F58062904207D002F58062904284
:1010640003D002F57842904203D123F070034A681A
:101074001343254A90422AD0B0F1804F27D0A2F5DD
:101084007C42904223D002F5806290421FD002F548
:10109400806290421BD002F57842904217D002F54C
:1010A4007052904213D002F5806290420FD002F544
:1010B400806290420BD0A2F59832904207D002F59C
:1010C4008062904203D002F58062904203D123F4FF
:1010D4004073CA68134323F080034A6913438A6840
:1010E400C2620A688262084A904203D002F58062B2
:1010F400904201D10A690263026842F0040202606C
:1011040001224261036070470000014040B310B502
:10111400044690F83D30F3B1022384F83D30214673
:1011240051F8040BFFF78AFF012384F8463084F852
:101134003E3084F83F3084F8403084F8413084F8FD
:10114400423084F8433084F8443084F8453084F8DD
:101154003D30002010BD80F83C30FFF72DFEDBE76A
:101164000120704740B310B5044690F83D30F3B108
:10117400022384F83D30214651F8040BFFF75EFF4B
:10118400012384F8463084F83E3084F83F3084F8F4
:10119400403084F8413084F8423084F8433084F895
:1011A400443084F8453084F83D30002010BD80F888
:1011B4003C30FFF740FFDBE70120704740B310B538
:1011C400044690F83D30F3B1022384F83D302146C3
:1011D40051F8040BFFF732FF012384F8463084F8FA
:1011E4003E3084F83F3084F8403084F8413084F84D
:1011F400423084F8433084F8443084F8453084F82D
:101204003D30002010BD80F83C30FFF715FFDBE7D0
:101214000120704730B4036A026A22F010020262AD
:101224004468826922F4E6420D6842EA052223F00A
:1012340020038D6843EA0513114DA84203D005F538
:101244008065A84206D123F08003CD6843EA0513E4
:1012540023F040030A4DA84203D005F58065A84257
:1012640007D124F440644D6944EA85048D6944EA55
:101274008504446082614A688263036230BC7047BB
:101284000000014090F83C30012B28D010B50446F2
:10129400012380F83C300C2A1CD8DFE802F0071B3D
:1012A4001B1B0C1B1B1B111B1B1B16000068FFF7D1
:1012B400FBFD00200FE00068FFF7ACFF00200AE010
:1012C4000068FFF729FE002005E00068FFF75CFED8
:1012D400002000E00120002384F83C3010BD0220EF
:1012E400704738B590F83C30012B66D004460D4663
:1012F400012380F83C300C2A5AD8DFE802F0075961
:1013040059591B5959593059595944000068FFF724
:10131400CBFD2268936943F00803936122689369C3
:1013240023F0040393612268936929690B43936151
:1013340000203EE00068FFF76DFF2268936943F4E4
:10134400006393612268936923F480639361226844
:101354009369296943EA01239361002029E0006825
:10136400FFF7DAFD2268D36943F00803D3612268EA
:10137400D36923F00403D3612268D36929690B4339
:10138400D361002015E00068FFF7FEFD2268D369F1
:1013940043F40063D3612268D36923F48063D36187
:1013A4002268D369296943EA0123D361002000E05C
:1013B4000120002384F83C3038BD0220FCE710B43F
:1013C400846824F47F4C42EA03220A4342EA0C0272
:1013D40082605DF8044B704790F83C30012B78D064
:1013E40010B50446012380F83C30022380F83D30D8
:1013F4000268936823F47F4323F0770393600B68B8
:10140400602B4CD023D8402B54D011D8202B03D0A0
:101414000AD80BB1102B05D119462068FFF703FE3B
:10142400002028E0012026E0302BF5D0012022E026
:10143400502B0AD1CA6849680068FFF7CDFD5021D6
:101444002068FFF7F0FD002015E0012013E0B3F55C
:10145400805F3AD0B3F5005F14D0702B37D1CB68DE
:101464004A6889680068FFF7AAFF2268936843F016
:10147400770393600020012384F83D30002384F82F
:101484003C3010BDCB684A6889680068FFF797FF55
:101494002268936843F4804393600020EBE7CA68B2
:1014A40049680068FFF7ABFD60212068FFF7BBFDCA
:1014B4000020E0E7CA6849680068FFF78DFD402115
:1014C4002068FFF7B0FD0020D5E70020D3E7012016
:1014D400D1E70220704701F01F014FF0010C0CFA14
:1014E40001FC036A23EA0C030362036A8A40134380
:1014F4000362704710B504460846002942D194F8A7
:101504003E30DBB2013B18BF0123002B6ED1002813
:1015140051D1022384F83E30012201462068FFF7AE
:10152400DAFF2368334A934203D002F58062934280
:1015340003D15A6C42F400425A6423682D4A934200
:1015440049D0B3F1804F46D0A2F57C42934242D0B9
:1015540002F5806293423ED002F5806293423AD013
:1015640002F57842934236D002F57052934232D05B
:10157400A2F5943293422ED01A6842F001021A6006
:10158400002032E0042908D008290DD094F8413015
:10159400DBB2013B18BF0123B7E794F83F30DBB25D
:1015A400013B18BF0123B0E794F84030DBB2013BA4
:1015B40018BF0123A9E7042805D0082807D002236F
:1015C40084F84130A8E7022384F83F30A4E70223DB
:1015D40084F84030A0E79A6802F00702062A07D090
:1015E4001A6842F001021A60002010BD0120FCE7D5
:1015F4000020FAE70000014010B50446084600291F
:1016040042D194F83E30DBB2013B18BF0123002BDA
:101614006ED1002851D1022384F83E3001220146C4
:101624002068FFF758FF2368334A934203D002F53A
:101634008062934203D15A6C42F400425A64236894
:101644002D4A934249D0B3F1804F46D0A2F57C4253
:10165400934242D002F5806293423ED002F580620A
:1016640093423AD002F57842934236D002F5705252
:10167400934232D0A2F5943293422ED01A6842F0AB
:1016840001021A60002032E0042908D008290DD094
:1016940094F84130DBB2013B18BF0123B7E794F85B
:1016A4003F30DBB2013B18BF0123B0E794F8403070
:1016B400DBB2013B18BF0123A9E7042805D00828A1
:1016C40007D0022384F84130A8E7022384F83F308E
:1016D400A4E7022384F84030A0E79A6802F00702E6
:1016E400062A07D01A6842F001021A60002010BDD1
:1016F4000120FCE70020FAE70000014090F83C20BC
:10170400012A3DD010B40346012280F83C20022275
:1017140080F83D2002685068946820F0700C0868D6
:1017240040EA0C0050601A68164882421AD0B2F19E
:10173400804F17D0A0F57C40824213D000F5806022
:1017440082420FD000F5806082420BD000F57840D1
:10175400824207D000F57050824203D0A0F5943045
:10176400824204D124F0800449682143916001221B
:1017740083F83D20002083F83C005DF8044B70475B
:101784000220704700000140002800F09B8070B5E3
:101794000D4604464F4B1B6803F00F038B4208D2DF
:1017A400CBB24C4A1370136803F00F038B4240F022
:1017B4008B80236813F0020F17D013F0040F04D0AA
:1017C400454A936843F4E0539360236813F0080F89
:1017D40004D0414A936843F4604393603E4A93685B
:1017E40023F0F003A1680B439360236813F0010F07
:1017F40032D06368012B21D09A1E012A25D9364A9A
:10180400126812F0020F61D033498A6822F0030291
:1018140013438B6000F004FF06462F4B9B6803F0D4
:101824000C036268B3EB820F16D000F0F9FE801B44
:1018340041F288339842F0D9032042E0264A1268E4
:1018440012F4003FE0D101203BE0234A126812F079
:10185400007FD9D1012034E01E4B1B6803F00F0335
:10186400AB4207D9EAB21B4B1A701B6803F00F0393
:10187400AB422DD1236813F0040F06D0164A9368A7
:1018840023F4E053E1680B439360236813F0080FDB
:1018940007D0114A936823F46043216943EAC103E2
:1018A400936000F021F80C4B9B68C3F303130B4ABD
:1018B400D35CD8400A4B18600A4B186800F064FEE9
:1018C400002070BD012070470120FAE70120F8E7ED
:1018D4000120F6E7003C0240003802404827000897
:1018E400106000200C60002008B5464B9B6803F094
:1018F4000C03082B05D00C2B43D0042B7FD142487A
:1019040019E0404B5A6802F03F025B6813F4800F01
:1019140012D03C4B5968C1F388113B480023A1FB0A
:101924000001FEF76DFC374B5B68C3F301430133E1
:101934005B00B0FBF3F008BD324B5868C0F388106D
:101944004FEA401CBCEB000C6EEB0E0E4FEA8E13FC
:1019540043EA9C634FEA8C11B1EB0C0163EB0E0379
:10196400DB0043EA5173C90011EB000C43F100039F
:10197400990200234FEA8C2041EA9C51FEF740FC77
:10198400D1E7204B5A6802F03F025B6813F4800FE2
:1019940010D01C4B5968C1F388111B480023A1FBCC
:1019A4000001FEF72DFC174B5B68C3F30273B0FB19
:1019B400F3F0C0E7134B5868C0F388104FEA401C9B
:1019C400BCEB000C6EEB0E0E4FEA8E1343EA9C63E5
:1019D4004FEA8C11B1EB0C0163EB0E03DB0043EA1D
:1019E4005173C90011EB000C43F100039902002369
:1019F4004FEA8C2041EA9C51FEF702FCD3E70348EE
:101A040099E700BF0038024040787D010024F400CB
:101A1400002800F0018270B582B00446036813F018
:101A2400010F41D0994B9B6803F00C03042B32D077
:101A3400964B9B6803F00C03082B27D0934B9B68B1
:101A440003F00C030C2B59D06368B3F5803F5BD0D3
:101A5400B3F5A02F5ED08D4B1A6822F480321A6041
:101A64001A6822F480221A606368002B5CD000F0AC
:101A7400D7FD0546854B1B6813F4003F14D100F0D5
:101A8400CFFD401B6428F5D90320CCE17F4B5B6874
:101A940013F4800FD2D07D4B1B6813F4003F03D0A6
:101AA4006368002B00F0BA81236813F0020F60D042
:101AB400764B9B6813F00C0F4AD0744B9B6803F071
:101AC4000C03082B3FD0714B9B6803F00C030C2BC9
:101AD40069D0E368002B75D06D4B01221A6000F0C9
:101AE4009FFD0546694B1B6813F0020F61D100F09E
:101AF40097FD401B0228F5D9032094E1634B5B68F2
:101B040013F4800FA0D0C6E7604A136843F480330F
:101B14001360A9E75D4B1A6842F480221A601A68C0
:101B240042F480321A609FE700F07AFD0546574B75
:101B34001B6813F4003FB7D000F072FD401B64280B
:101B4400F5D903206FE1514B5B6813F4800FBAD1D0
:101B54004E4B1B6813F0020F03D0E368012B40F0D7
:101B64005F814A4A136823F0F803216943EAC103F9
:101B74001360236813F0080F49D06369002B33D036
:101B8400434B0122C3F8802E00F04AFD05463F4B2B
:101B94005B6F13F0020F3AD100F042FD401B0228A4
:101BA400F5D903203FE1394B5B6813F4800F90D1E2
:101BB400CEE7364A136823F0F803216943EAC103E8
:101BC4001360D6E7324B00221A6000F029FD054667
:101BD4002E4B1B6813F0020FCBD000F021FD401BED
:101BE4000228F5D903201EE1294B0022C3F8802ED8
:101BF40000F016FD0546254B5B6F13F0020F06D06F
:101C040000F00EFD401B0228F5D903200BE12368E8
:101C140013F0040F76D01D4B1B6C13F0805F33D18F
:101C240000230193194B1A6C42F080521A641B6C06
:101C340003F080530193019B0125164B1B6813F499
:101C4400807F29D0A368012B3AD0052B3ED00F4BBF
:101C54001A6F22F001021A671A6F22F004021A673F
:101C6400A368002B3CD000F0DBFC0646074B1B6F3F
:101C740013F0020F45D100F0D3FC801B41F28833EE
:101C84009842F3D90320CEE00025D6E7003802407D
:101C940000004742007000406B4A136843F48073AD
:101CA400136000F0BDFC0646674B1B6813F4807F8D
:101CB400C8D100F0B5FC801B0228F5D90320B2E09E
:101CC400624A136F43F001031367C9E75F4B1A6F4E
:101CD40042F004021A671A6F42F001021A67BFE762
:101CE40000F09EFC0646594B1B6F13F0020F08D000
:101CF40000F096FC801B41F288339842F3D903200C
:101D040091E0EDB9A369002B00F08C804F4A9268F2
:101D140002F00C02082A54D0022B17D04C4B00229C
:101D24001A6600F07DFC0446484B1B6813F0007FE4
:101D340045D000F075FC001B0228F5D9032072E0A1
:101D4400424A136C23F080531364DBE7404B0022B8
:101D54001A6600F065FC05463C4B1B6813F0007FD7
:101D640006D000F05DFC401B0228F5D903205AE0A0
:101D7400E369226A1343626A43EA8213A26A52083D
:101D8400013A43EA0243E26A43EA0263226B43EA0A
:101D940002732E4A53602E4B01221A6600F040FC57
:101DA40004462A4B1B6813F0007F06D100F038FC70
:101DB400001B0228F5D9032035E0002033E0002081
:101DC40031E0012B31D0214B5B6803F48001E269DF
:101DD40091422CD103F03F02216A8A4229D1616ADF
:101DE40047F6C0721A40B2EB811F24D103F440318C
:101DF400A26A5208013AB1EB024F1ED103F070629D
:101E0400E16AB2EB016F1AD103F0E043226BB3EB4A
:101E1400027F16D1002006E001207047012002E075
:101E2400012000E0002002B070BD0120FBE701208A
:101E3400F9E70120F7E70120F5E70120F3E70120A6
:101E4400F1E70120EFE700BF0070004000380240D6
:101E54000000474200230F2B00F2E38070B582B0EC
:101E640065E085684FEA430E032404FA0EF425EA7C
:101E74000405CC6804FA0EF42C438460446824EA14
:101E840002044A68C2F300129A40224342605CE0B2
:101E9400DC08083450F8242003F00705AD004FF0A7
:101EA4000F0E0EFA05FE22EA0E0E0A69AA4042EA55
:101EB4000E0240F824205CE0062200E0002202FA30
:101EC4000EF22A430234574D45F82420564A9468AA
:101ED4006FEA0C0224EA0C054E6816F4801F01D048
:101EE4004CEA0405504CA560E46802EA04054E6817
:101EF40016F4001F01D04CEA04054B4CE5606468FD
:101F040002EA04054E6816F4003F01D04CEA0405C9
:101F1400454C6560246822404D6815F4803F01D02B
:101F24004CEA0402404C226001330F2B77D8012283
:101F34009A400C6804EA020C32EA0404F4D14C68B6
:101F440004F00304013C012C8BD94A6802F003021B
:101F5400032A09D0C4685D000322AA4024EA0204CB
:101F64008A68AA402243C2604A6802F00302022A35
:101F74008ED004684FEA430E032202FA0EF224EADA
:101F840002044A6802F0030202FA0EF222430260DB
:101F94004A6812F4403FC7D000220192234A546C8D
:101FA40044F480445464526C02F480420192019AD5
:101FB4009C08A51C1B4A52F8255003F0030E4FEA57
:101FC4008E0E0F2202FA0EF225EA0205184A9042FA
:101FD4003FF474AF02F58062904216D002F580623D
:101FE400904214D002F58062904212D002F58062D1
:101FF400904210D002F5806290420ED002F58062C9
:1020040090423FF459AF072259E7012257E70222D1
:1020140055E7032253E7042251E705224FE702B0B4
:1020240070BD704700380140003C01400038024058
:10203400000002400AB18161704709048161704760
:102044007047000008B5054B5B69034200D108BD29
:10205400024B5861FFF7F4FFF9E700BF003C014071
:1020640030B405682C6824F480242C600468636010
:102074008368402B05D0036899600368DA6030BC3C
:10208400704703689A600368D960F8E710B403687E
:10209400D9B210390A4AA2FB01421209094CA25CC6
:1020A400C2655F2907D96FF3090304338365806D23
:1020B4005DF8044B70476FF309038365F7E700BFCE
:1020C400ABAAAAAA40270008836A826992B9012BA5
:1020D4000AD0022B02D00BB100207047C36A13F060
:1020E400807F28D100207047C36AB3F1C07F24D019
:1020F40000207047B2F5005F09D0022B25D9032BCD
:1021040025D1C36A13F0807F23D100207047032BAD
:1021140003D8DFE803F01404140A00207047C36AEC
:1021240013F0807F0DD100207047C36AB3F1C07FE4
:1021340009D000207047012070470120704701201A
:10214400704701207047012070470120704700202C
:10215400704701207047000070B5044600F060FA33
:10216400002C5BD00546022384F83530002384F824
:1021740034302268136823F00103136023681A685B
:1021840012F0010F0AD000F04BFA431B052BF5D9CE
:1021940020236365032084F8350070BD1A68204944
:1021A40011406268A0680243E06802432069024368
:1021B40060690243A0690243E0690243206A024362
:1021C4000A43616A04291ED01A602668756925F0DD
:1021D4000705636A1D43042B07D1A36A1D43E36A01
:1021E4001BB12046FFF770FF90B975612046FFF7D9
:1021F4004DFFE26D3F23934083600020606501231F
:1022040084F83530C9E7E16A206B01430A43DBE710
:1022140040236365012084F83500BEE70120BCE754
:102224003F8010F038B50446856D90F834000128DD
:102234002BD0012084F8340094F83500C0B2012872
:1022440004D0002384F83430022038BD022084F8FE
:102254003500002060652046FFF702FFE26D3F2352
:102264009340AB602268136843F016031360236C39
:1022740023B12268136843F00803136022681368CB
:1022840043F0010313600020DFE70220DDE790F84C
:102294003530DBB2022B03D0802343650120704725
:1022A400052380F835300268136823F001031360B6
:1022B40000207047F0B583B0044600230193724BAD
:1022C4001D68724BA3FB0535AD0A876D3E68C26D70
:1022D40008239340334210D003681A6812F0040FA5
:1022E4000BD01A6822F004021A60C26D08239340CE
:1022F400BB60436D43F001034365E26D01239340EA
:10230400334209D02268526912F0800F04D0BB60B6
:10231400636D43F002036365E26D0423934033422B
:1023240009D02268126812F0020F04D0BB60636DFA
:1023340043F004036365E26D10239340334224D0D9
:102344002268126812F0080F1FD0BB6023681A6855
:1023540012F4802F0DD01B6813F4002F04D1236CCA
:102364009BB12046984710E0A36C73B12046984770
:102374000BE01A6812F4807F03D11A6822F0080275
:102384001A60236C0BB120469847E26D20239340DA
:10239400334255D02268126812F0100F50D0BB603F
:1023A40094F83530DBB2052B0ED023681A6812F48A
:1023B400802F33D01B6813F4002F2AD1636C002BB9
:1023C4003ED0204698473BE02268136823F016036A
:1023D40013602268536923F080035361236CA3B113
:1023E4002268136823F008031360E26D3F239340CF
:1023F400BB60012384F83530002384F83430236D26
:10240400002B3FD0204698473CE0A36C002BE7D13B
:10241400EBE7E36BA3B12046984711E01A6812F486
:10242400807F09D11A6822F010021A60012384F80F
:102434003530002384F83430E36B0BB120469847E1
:10244400636DFBB1636D13F0010F17D0052384F89E
:1024540035302268136823F001031360019B0133B4
:102464000193AB4204D823681B6813F0010FF5D124
:10247400012384F83530002384F83430E36C0BB145
:102484002046984703B0F0BD10600020B5814E1B74
:10249400002807DB00F01F02400901239340024A91
:1024A40042F82030704700BF00E100E0002808DB5C
:1024B4000901C9B200F1604000F5614080F80013E1
:1024C400704700F00F000901C9B2014B195470475D
:1024D40014ED00E000B500F00700C0F1070CBCF1FA
:1024E400040F28BF4FF0040C031D062B0FD9C31E85
:1024F4004FF0FF3E0EFA0CF021EA000199400EFA6B
:1025040003FE22EA0E0241EA02005DF804FB002306
:10251400EEE70000074AD36823F4E0631B041B0CB6
:10252400000200F4E060034343F0BF6343F400336C
:10253400D360704700ED00E010B50446054BD86841
:10254400C0F30220FFF7C6FF01462046FFF7AEFFA7
:1025540010BD00BF00ED00E008B5FFF799FF08BD0E
:102564000138B0F1807F0BD24FF0E0235861054A67
:10257400F02182F823100020986107221A61704725
:102584000120704700ED00E010B504460E4B1A78A8
:102594004FF47A73B3FBF2F30C4A1068B0FBF3F018
:1025A400FFF7DEFF68B90F2C01D901200AE00022F1
:1025B40021464FF0FF30FFF7BFFF054B1C600020A2
:1025C40000E0012010BD00BF086000201060002062
:1025D4000C60002008B50B4B1A6842F400721A60B4
:1025E4001A6842F480621A601A6842F480721A60AF
:1025F4000320FFF78FFF0F20FFF7C6FFFEF7C0FB96
:10260400002008BD003C0240034A1168034B1B78BC
:102614000B441360704700BF28610020086000204D
:10262400014B1868704700BF28610020034AD2F8A4
:10263400883043F47003C2F88830704700ED00E03E
:10264400DFF834D0FFF7F2FF0C480D490D4A0023A0
:1026540002E0D458C4500433C4188C42F9D30A4A53
:102664000A4C002301E013600432A242FBD300F0C1
:1026740019F8FEF7B9F970470000022000000020A5
:102684001460002068270008146000202C610020DA
:10269400FEE702440346934200D1704703F8011B4E
:1026A400F9E7000070B50D4D0D4C641BA410002615
:1026B400A64209D10B4D0C4C00F018F8641BA41071
:1026C4000026A64205D170BD55F8043B9847013653
:1026D400EEE755F8043B98470136F2E76027000817
:1026E400602700086027000864270008F8B500BFC9
:1026F400F8BC08BC9E467047F8B500BFF8BC08BCDF
:042704009E46704736
:1027080053494E4500000000534157544F4F544819
:1027180000000000545249414E474C45000000005B
:102728005049414E4F00000047554954415200005E
:102738004452554D00000000000610160006101601
:102748000000000000000000010203040607080959
:08275800DCDAFF7F0100000044
:04276000E901000883
:04276400C5010008A3
:102768003C040040CCBB0000FF070000010800004B
:1027780000080000C903000051020000D201000057
:10278800F70F0000000000004B0D0000EF030000F1
:102798000B09000052080000180900004908000051
:1027A8009D0700007707000063070000CE080000BF
:1027B800DE0500007B0900008A0600000D08000005
:1027C800E708000011070000B208000086070000B3
:1027D800DB07000056080000C60700001E080000BE
:1027E800DE0700002D080000EF07000000080000C9
:1027F800EB070000FE0F0000F80F0000C206000003
:10280800720F000030000000AC0C00004A06000007
:102818004908000046070000820A0000ED06000093
:10282800F10800002C0700006A0700009F0900005B
:10283800CD0500006309000011070000A50700008E
:10284800C7080000620700004F080000EF070000FB
:102858009F0700003B080000F00700000C0800007C
:10286800F50700000208000008080000F107000052
:10287800FC07000036000000D20F00000A0B000021
:10288800B4070000210700001F0A00002809000003
:102898002E070000370600008A0700009C08000089
:1028A80021080000DC0700000008000042080000C2
:1028B800D807000006080000EA0700001408000016
:1028C8001B080000F3070000F8070000FF070000DE
:1028D800F5070000F707000001080000F8070000EE
:1028E80009080000FF070000ED07000006080000C7
:1028F80051090000FA0D0000BB060000F00F0000AF
:1029080000000000B60B0000860400005E0900000D
:102918004B080000AF0B00005A07000078080000C1
:102928008106000028070000500900005D0600002D
:10293800E807000034080000C70600007A08000015
:10294800320800009D0700008F080000AB07000058
:10295800280800000C080000BD070000340800002B
:10296800AC0700002B080000D60700001B08000079
:10297800DA080000FE070000440800002A080000EA
:10298800DC06000017080000BF070000FB07000076
:102998002C0800001B080000E40700000F080000D6
:1029A800E207000001080000F6070000F007000039
:1029B8000B080000F5070000E80700000008000009
:1029C80026080000FD070000060800000D080000AA
:1029D800F00700000D0800000C080000F8070000D0
:1029E8000208000003080000FD07000004080000BA
:1029F80073070000AE0A0000D60700003A0800007E
:102A0800F00800000F080000EB070000D5070000E1
:102A1800D2070000BF070000D70700000708000022
:102A28000C080000FA070000010800000E0800006A
:102A380027080000EC07000023080000EA07000050
:102A4800F9070000EA070000DC070000FA070000A9
:102A5800F2070000EF070000060800000108000068
:102A6800FC070000FF070000FD070000FE0700004C
:102A7800E401000088000000E90D0000910D00004D
:102A88005507000018070000420900009B090000D4
:102A9800A1070000FD0600006507000052080000BD
:102AA80067080000DF070000C807000007080000EB
:102AB80000080000DB070000E30700001D08000015
:102AC80002080000FE07000009080000EB070000EC
:102AD800FA070000020800000C080000F9070000CF
:102AE800F3070000FB0700000A080000EC070000DD
:102AF800820600008A07000043080000C0070000A3
:102B08007F070000E60700007D070000A30700001C
:102B1800F0070000E307000012080000F7070000B4
:102B2800FD07000006080000F50700000508000082
:102B3800DF0000002F060000600E00007A00000091
:102B4800C50B0000FA0300004D0700001E0A000034
:102B580072040000C80C00005C050000C5070000F6
:102B68002F080000BF080000DF06000098090000D9
:102B7800220E0000F10F0000C8060000090E000038
:102B88008E020000820C0000190700006D0800008A
:102B980085060000DA0A00007F060000920900009E
:102BA8004607000073070000B40900002006000073
:102BB800360900009007000083070000B6080000EF
:102BC8009007000035080000190800009907000068
:102BD800310800000708000001080000FF07000096
:102BE800EC07000015080000EC070000FF060000D5
:102BF80023090000090800007B08000057080000AE
:102C0800C607000009080000390800002C08000069
:102C180004080000F407000008080000DD070000B1
:102C28000708000004080000FA070000FA0700007F
:102C380016080000FE070000F1070000FA07000070
:102C4800310800000F0800002A080000E90700000A
:102C58000E080000FC070000FD0700000108000046
:102C6800FF070000060800000B08000054050000DC
:102C78003F05000049040000F50B0000E2080000D1
:102C880063070000FF06000032070000E2080000AA
:102C9800A80800000F0800001A070000D20700006B
:102CA8003B080000FA070000DF070000D707000014
:102CB80028080000D1070000E9070000020800000A
:102CC800F9070000EC0700000A08000000080000EF
:102CD800F60700000B0800000108000000080000CB
:102CE80002080000080800000F0800007B0200002E
:102CF8007D0E0000E0040000CF0A00008E070000EF
:102D08004C0D000066070000BD0900002E050000FC
:102D1800B10A00008D050000840A00003607000093
:102D28001D0700002D080000490800004D0700009D
:102D380053080000E707000061070000C208000010
:102D4800810700005A080000ED070000CB070000CB
:102D58007C0800001C08000007080000CC070000E1
:102D68005208000001080000F107000057060000A3
:102D7800120700000F0800000E090000C608000036
:102D8800760700000208000097070000EF07000020
:102D9800E9070000ED0700001B0800000408000018
:102DA800FA070000FE07000077080000A5070000EA
:102DB800F4070000250800001308000008080000B8
:102DC800FB070000F6070000FA070000FC070000F8
:102DD8000008000001080000FF070000FC070000D1
:102DE800FC07000001080000FA0700000D060000BB
:102DF800630000008A010000FB0F000000000000D3
:102E08004D0D000095030000F7080000640800005D
:102E1800EB08000084080000860700008107000016
:102E280069070000AC0800001D06000092090000B8
:102E38008E0600001A080000EE08000014070000C3
:102E4800BC0800007C070000DF07000056080000EF
:102E5800C20700001E080000DB070000330800005E
:102E6800ED070000FE0700000B080000FE0F000041
:102E7800190E00000E0600004B0700004C09000068
:102E8800070900009E040000300600003F0900000A
:102E9800330900002C0800008A070000B30700006F
:102EA800450800002E080000E2070000F9070000AE
:102EB80010080000E6070000E0070000EC0700002B
:102EC80002080000220800000B080000EE070000BE
:102ED800FB0700000108000009080000EA070000DD
:102EE80007080000FD07000019080000550700004A
:102EF800350600001A080000D90700006B0700001B
:102F0800BC070000FB0700003A08000006080000A4
:102F180007080000FE070000FE070000F607000093
:102F2800FA070000FB070000D70A0000740F000032
:102F380091010000FE0F000000000000870F000054
:102F4800E7040000E90700005A090000B605000080
:102F58003F0A0000EF070000B30700006407000005
:102F680095090000790600005609000009000000D4
:102F78003C0200007007000006090000050A000076
:102F8800210D000025090000680900000004000068
:102F9800C5090000440500006A0A0000A0070000F7
:102FA800620700005409000046070000C608000038
:102FB800850800004C0700001C0800003B080000C2
:102FC800BC07000078080000C2070000EB070000FB
:102FD80045080000DD0700002C080000B7070000C6
:102FE8002C080000F7070000C9080000390E00008F
:102FF80017050000E5070000130900004C0A00004F
:103008006608000046080000DA08000066050000AF
:103018004A0900003C0500008A0900002A0800004F
:10302800BC070000C0080000510800009C07000011
:10303800C308000092070000890700009E080000EE
:103048007C0700007E08000006080000BB0700009F
:103058003F080000C607000041080000B407000050
:10306800270800000F080000980A0000B90F0000A8
:10307800910A0000D2050000DF050000F2090000F7
:103088002A070000890700008B060000850700005A
:10309800640800004E080000D9070000CD070000B2
:1030A800180800000A0800000F08000002080000C5
:1030B800F00700002F0800001D080000ED070000C1
:1030C800F307000009080000FC070000F3070000F0
:1030D800FA070000FD07000005080000F4070000DB
:1030E80001080000F40700006F0500000902000055
:1030F8006B07000010090000360B0000CC0A000026
:10310800FB090000EE080000980500004B080000CD
:1031180060050000430A00003D0800005C0900004B
:103128007D0700009F0900008807000008080000CC
:10313800B0080000D1060000F9080000BB07000035
:1031480098070000500800006D0700003D080000C7
:10315800FE07000032080000EB0700000F0800001F
:10316800F307000041080000720B00002006000071
:10317800A5050000A1060000DE0700000108000008
:10318800FD070000F2070000060800001D08000007
:10319800E2070000ED0700000C080000F50700003A
:1031A800F507000000080000A5070000F007000070
:1031B800E3070000F407000007080000F407000018
:1031C8000208000002080000FD07000001080000D6
:1031D800F7070000F9070000FE070000FD070000E0
:1031E80006080000FB070000480A0000CF0700009F
:1031F800B30700005E07000072080000090800001D
:1032080066080000FD070000D5070000DE07000083
:10321800FC070000D3070000FB07000005080000BA
:10322800F00700000908000019080000F307000073
:10323800F9070000FD070000F8070000DE0700009E
:10324800EB070000E90700000F080000070800006E
:10325800FF07000000080000FE070000FE0700004E
:10326800FD070000E306000007000000930A0000C5
:103278003D0800005C0600008809000010090000F5
:103288004A0A000059080000E10600002307000070
:103298002C080000550800000F080000CC070000AB
:1032A800080800000B080000F9070000E407000008
:1032B800EC070000FD0700000F08000000080000F0
:1032C800F6070000FC0700000708000013080000CC
:1032D800E50700001F080000F107000025080000AE
:1032E800FD070000CC0900009F060000A0060000B2
:1032F800C40800007C080000CF0700009C080000FC
:1033080012080000EB070000DD070000F3070000CB
:1033180004080000FD07000005080000F70700008A
:103328000208000006040000860A00006D0600007E
:103338004B0B00007B020000EE0E00005B07000054
:1033480044090000C80600008D0800005907000065
:103358007E090000E60700000A07000009090000CE
:1033680067070000BC080000560E0000B8090000FE
:103378000109000085080000DF0900008905000038
:10338800570700009F080000550600009B09000031
:103398009F050000130900004C080000DA07000030
:1033A800380800009D08000037070000BF0800002B
:1033B800C907000060070000BB0800005F070000A5
:1033C8007308000023080000AB0700003308000062
:1033D800C30700004B080000B70700001B080000E7
:1033E80011080000FD0500005908000095070000BD
:1033F8007308000053080000D90700001C080000EB
:10340800C5070000E407000009080000D007000015
:103418000E0800000C080000DA0700000F08000082
:10342800F60700000F08000005080000E10700008B
:1034380034080000C5070000DB0700001208000080
:10344800E9070000FF070000FA070000060800006F
:10345800FD07000000080000FD070000000800004C
:1034680003080000110A0000040000003E070000E5
:10347800FF0800002A080000430600005308000067
:10348800000A000041090000B3070000EA07000035
:103498000B08000033080000F5070000D8070000FB
:1034A800E1070000190800000F080000E507000008
:1034B800080800001408000008080000F9070000C8
:1034C8000E080000FC0700000808000002080000C1
:1034D8000108000006080000FD070000F3070000CF
:1034E800600700005B0F00007A070000960C0000E0
:1034F80099010000F90A0000410100005707000087
:10350800FC070000DE070000460900002A0700004B
:103518000E0900008C070000A40900003106000015
:103528007D090000DA0700003C070000AB09000035
:10353800FB060000E407000016080000470700002B
:103548007B0800009E070000E7070000F307000063
:1035580046080000F2070000C80700002A0800001B
:103568007708000032060000A00700008B07000063
:10357800C20800006C0800001D080000C307000016
:1035880007080000DC070000E5070000F807000056
:10359800F40700001B080000F7070000ED07000013
:1035A8002B080000E1070000140800000D080000C7
:1035B8000C080000FB070000FB07000013080000D0
:1035C800E9070000FE07000006080000FE070000EB
:1035D8000408000003080000F907000005080000BF
:1035E800FB07000008000000A00200001A08000005
:1035F8007F09000051090000150D000008090000AE
:10360800590900000A040000E409000061050000EF
:103618007C0A00009407000064070000930900007A
:1036280038070000ED080000730800004707000095
:103638002708000027080000C80700006F080000DE
:10364800BE070000F307000043080000D907000088
:1036580024080000BC0700002C080000F307000045
:10366800F60F0000A00F000002040000660700002B
:10367800180700007309000073060000A406000084
:103688003C0800003D0900009108000061070000A7
:103698009D0700003808000035080000D607000024
:1036A8000608000023080000DF070000B507000037
:1036B800FD070000F80700000A08000003080000E2
:1036C800FB070000FC07000011080000EC070000E1
:1036D80007080000F207000015080000F4070000C2
:1036E800F4080000C0080000650800002807000072
:1036F8002108000023080000B107000003080000AB
:10370800DA0700002508000000080000160800007D
:103718000108000002080000F9070000B5070000D2
:10372800DE0B0000830200008D070000820B000002
:1037380003050000C80B000051060000C70A00007E
:10374800F2040000740A0000BE0400006F090000C3
:10375800480800004F070000040800005C0800004B
:10376800FF070000FF070000FF070000FF07000039
:10377800FF070000280800002909000014080000BD
:10378800600700003E0800009F080000C70700000F
:1037980075060000C306000046080000370900004F
:1037A800A0090000620900006A0800008407000000
:1037B800AC0700002308000059080000B207000009
:1037C800F4060000A20600001E07000044080000DE
:1037D800E9080000F40800007A080000B2070000B9
:1037E800F807000078080000B5080000430800004A
:1037F80067070000C7060000B4060000A60700001F
:10380800A6080000EB090000050800009B0800005E
:10381800440800004A0800004B090000E4070000C3
:10382800DB080000C5060000EC060000B207000037
:10383800650700006E0900009A070000DD06000019
:10384800960800000A090000570B000082090000D2
:103858005F0C000066070000650500005E080000B8
:103868002D040000400900005F04000071080000FA
:103878003708000086080000BD0800005108000055
:10388800E107000061080000D607000021080000D9
:10389800F4070000E3070000FE070000BA07000075
:1038A80042080000CD0700001B08000004080000C3
:1038B800E207000019080000F40700003A080000B9
:1038C800FB070000F907000002080000E9070000F4
:1038D800EC070000EC070000F407000002080000F5
:1038E800FA0700001C08000012080000FD0700008D
:1038F80008080000DB070000B008000041090000CC
:10390800AD0600002808000059070000FE07000067
:103918006808000047070000AA080000F106000038
:1039280084080000E807000082070000C3080000C0
:10393800E606000061080000E8070000EA0700004A
:1039480019080000E207000006080000FB07000055
:10395800F407000012080000EB070000110800003F
:10396800F30700000808000001080000ED07000048
:1039780010080000EB04000089070000740A00002A
:10398800130A00005B080000C00700007D07000064
:10399800360600009B0700009C090000640900002F
:1039A800EC07000061070000EB0600003707000085
:1039B800880800009F0900006C08000075070000D7
:1039C8002F070000940600008C070000D6080000AE
:1039D8006A0900000B080000720700000D070000CC
:1039E8003D0700005D0800007A090000F3080000A8
:1039F800F60700006A070000E00600006207000002
:103A0800C3070000690900002609000053070000E9
:103A18000A070000A20700000B0900007608000052
:103A2800DA080000DA0800005E070000F40600006B
:103A3800850800005E090000AE060000CE08000000
:103A480056070000CC0300006C050000A509000023
:103A5800540B00008A0800001D07000086070000BC
:103A68008F070000940800002C09000037070000A9
:103A78003F080000AE080000CC070000FB0700006C
:103A8800C007000024080000FE070000FC07000033
:103A9800EA070000E30700000D080000ED0700003A
:103AA8002A080000FE070000F2070000E7070000F0
:103AB800000800000F080000120800000D080000B0
:103AC800E6070000E1070000FF070000FE0700000E
:103AD80014080000F90700000508000001080000AC
:103AE800E9070000F5070000020800000B080000C5
:103AF80017080000EE07000054070000BA0700008E
:103B080065070000F90700002908000032080000D6
:103B1800C80700004F080000C9080000DD070000C2
:103B28001708000044080000DF070000AF07000086
:103B3800D607000052080000BE070000C8070000B2
:103B48001A080000DD070000EC070000FE0700006F
:103B58000C08000003080000F8070000F90700003F
:103B680004080000FD070000FB070000050800002E
:103B7800F7070000DB080000860800005C0700006B
:103B880097080000F2060000BB0800005E0700006E
:103B9800F007000024080000F9060000FC080000F7
:103BA800140700004C080000210800000F0700005F
:103BB800FA0800000B070000B1080000D907000050
:103BC800B40700008E0800000F070000CD080000B1
:103BD800540700003D080000450800005907000090
:103BE800CE0800004207000076080000F207000037
:103BF80093070000FA08000034070000DA08000004
:103C0800D5060000C0070000450800005307000063
:103C1800880800000A070000070800000F080000D5
:103C2800650700003D080000A60700008E08000098
:103C3800020700008A08000034060000160A000087
:103C4800430800003E050000B10800009E0800007F
:103C58005309000018090000A30600009A08000094
:103C68008A09000001060000E80700004909000071
:103C78008C080000380800000C0800003808000014
:103C880008080000CB070000E30700001D0800003B
:103C980031080000E2070000F7070000E60700000F
:103CA800010800000A080000E2070000FF07000002
:103CB800F50700000108000001080000E107000006
:103CC80018080000FB07000018080000FE070000A5
:103CD800EB070000090800000108000012080000B6
:103CE800E9070000F507000015080000F6070000C6
:103CF8000D080000F1070000110800003508000059
:103D08003E0800008308000082080000A2070000A7
:103D180065070000920700003508000094080000BD
:103D280092080000F2070000380700008F07000023
:103D38001B0800005A0800006A0800005B08000021
:103D4800AA07000041070000E2070000260800005B
:103D580013080000FA070000F2070000000800003E
:103D68000B0800000D08000000080000F90700001B
:103D7800DE070000170A0000690700006708000056
:103D8800740800005B0700003509000039070000CF
:103D980085080000070800008C070000EF080000F5
:103DA80056070000D7080000870700000008000039
:103DB80078080000270700000E09000030070000FF
:103DC800710800003808000080070000B6080000ED
:103DD800460700008F080000C2070000DD0700004A
:103DE800680800004E070000C70800006C070000C4
:103DF8007B070000180700008B070000E20700009F
:103E080033070000DA080000360800001F08000029
:103E1800B5080000B4060000170800006C07000091
:103E280006080000CE08000011080000A7080000DE
:103E3800F20700003C0900001A08000064060000B0
:103E4800660800001D0700000C090000FA050000C4
:103E5800DC080000DF08000074060000FF06000010
:103E6800920700005B080000A7080000BE070000DA
:103E78004C09000063070000B7060000590600005F
:103E88007D07000016090000BF080000CB070000EE
:103E9800230700006D060000060700005C0800000C
:103EA800140A000000090000090800008507000046
:103EB80067070000DA070000320900009A090000CD
:103EC800610800000D070000810600009806000048
:103ED800CC07000027090000D9080000EE07000001
:103EE80056070000200700008D070000B1080000F9
:103EF8007609000020080000000800005C080000A7
:103F080089070000A406000087090000C009000016
:103F18008A060000EE0600000D08000054070000A5
:103F280067070000230A00003D090000880600001A
:103F3800EE060000DD060000FA050000300700006C
:103F4800700A00005A0900000707000089070000EE
:103F5800BD070000780700006A0800002809000073
:103F6800AC080000BE0600000A0700003108000087
:103F7800C7080000CC070000150700002108000052
:103F8800C2070000DF0600002C060000F70700004B
:103F98007D090000D7090000710900006D080000C4
:103FA8007D070000C3070000FD0700006808000047
:103FB800CB070000E50600008D060000EF060000B4
:103FC800440800001C0900000809000081080000DE
:103FD800AC070000F00700005D080000C208000000
:103FE8005B0800006A070000C3060000A006000086
:103FF8009C070000510800007B080000C80700006B
:104008008708000049080000FD0700001D0900009E
:10401800E20700001F080000B2060000B506000015
:10402800790700007A07000044090000EB07000048
:10403800AC08000042070000A80A00004C0A000073
:1040480016090000D6070000540800007106000099
:104058009B070000C307000033090000B8050000F3
:10406800C408000011080000B4060000450800005C
:104078005A080000F80700004E0800000008000079
:1040880008080000C9070000F8070000F70700004B
:10409800F00700001B080000E0070000010800000E
:1040A800E30700000108000016080000F2070000FE
:1040B8001D08000007080000F0070000F5070000D1
:1040C800E407000006080000F50700000E080000DD
:1040D80000080000F8070000FD070000FF070000C7
:1040E800010800000B080000F20700001708000094
:1040F8008407000036090000C9060000A80800006F
:104108004E08000031080000100900006707000091
:10411800D7080000670700004008000049080000B1
:104128005307000023090000230700005608000079
:1041380011080000E807000013080000EA07000063
:1041480007080000F7070000F60700001508000040
:10415800EE07000014080000F9070000FA07000045
:1041680006080000EB070000120800009A0500008E
:10417800300700006E090000B10A0000A309000022
:10418800870800000B080000FC0600000D0700006F
:10419800D508000059090000520800003607000041
:1041A800DC060000B60600009B0700002E09000090
:1041B800370900001B080000AB0700002B070000B0
:1041C8006E0700005F0800002B090000B40800001B
:1041D8008F0700002E070000F1060000A10700006D
:1041E800C8080000090900004E0800007807000010
:1041F800D30700000C0800003A0800004909000035
:104208009B08000035090000C8070000FA060000F6
:10421800D2070000560800009308000013080000A9
:1042280055080000B5070000D40600000D0800007E
:10423800B30A0000FF070000D20A0000C707000009
:1042480025060000C40700003C090000B40800006F
:104258006B060000320900001A080000720800000E
:10426800BA0700004A08000061090000CE070000F4
:10427800DF070000C1070000D1070000EB070000BE
:10428800080800000E0800000F080000C70700001B
:104298000A0800001E080000240800002708000083
:1042A800DD070000E9070000D7070000110800003B
:1042B80010080000F7070000FF07000003080000CF
:1042C800FB07000002080000F7070000F4070000E1
:1042D8000B0800000008000007080000F5070000B0
:1042E800FA0700000308000021080000E6070000A4
:1042F800A90700002C080000BB06000014070000F6
:104308002209000065070000BC08000057080000EB
:10431800B8080000CA07000093070000F208000070
:10432800800700002D080000D7070000F9070000EB
:10433800A80700007E070000AC080000BC070000CA
:104348000D08000006080000070800000408000027
:10435800F0070000FC070000FB070000F80700005A
:10436800000800000808000001080000C908000053
:10437800FA0800001507000075080000A4060000F0
:10438800CE080000D407000018070000FC08000051
:1043980090060000F2080000BF070000C0070000F8
:1043A80069080000ED060000B208000034070000AC
:1043B800540800005508000021070000F20800001A
:1043C800170700008B080000FD0700009707000092
:1043D8008808000029070000C10800006F070000D6
:1043E800350800005308000021070000DF0800001E
:1043F800C90700000E08000003070000AB07000013
:10440800530800000D070000830800001B07000088
:1044180065080000D0070000F90600001809000030
:104428006D070000090800007A0700006208000014
:10443800A00700002D060000C70A00009D09000023
:104448004E0400005408000047070000C0080000A0
:1044580074060000AE070000B10700004009000024
:104468000A0700004B0600006A0800004F08000019
:10447800C807000015080000DA0700000808000057
:10448800ED070000E207000012080000F80700002E
:1044980002080000E7070000F60700000F08000008
:1044A800FA07000004080000F7070000FB070000F7
:1044B800130800000508000017080000EA070000BC
:1044C800030800000A080000F307000003080000C2
:1044D800EC0700001108000005080000E4070000D0
:1044E8000D08000005080000FC070000E8070000B0
:1044F800FD0700002E0800004A08000043080000DD
:104508008108000024080000860700009C070000BE
:10451800FE07000046080000A2080000730800001B
:104528008F0700002D070000D5070000560800007F
:104538005708000072080000230800006707000001
:10454800A40700001208000010080000030800007B
:10455800F0070000F807000000080000110800003C
:1045680009080000FB070000DF0700006E0A0000D2
:10457800930800006307000039090000790700006C
:1045880042090000AA070000860800008907000009
:10459800780700000409000022070000070900004E
:1045A800E0070000A2070000D0080000050700008F
:1045B800EA08000069070000180800006208000007
:1045C8001E070000100900000C070000AF080000DB
:1045D8000B080000A00700009C0800003607000038
:1045E800AE0800009C0700005C060000EE07000013
:1045F800F1060000A1080000B80700006F080000DD
:104608008108000007080000A5070000D306000085
:104618009808000090070000D0080000D0080000AB
:10462800B20700003409000012070000D307000099
:10463800C7080000DD040000F90900008C0700002D
:104648007E0700005706000085090000810600006B
:10465800570600009A080000F20700005208000000
:1046680023080000390800008A09000091060000AC
:10467800030600007D0600005006000053080000F5
:10468800E20900006A0900002A08000096070000F5
:104698003907000066070000FD0800004209000015
:1046A800200800002A070000C1060000D406000008
:1046B8000F0800008B0900005C090000EA070000F1
:1046C800A30700001B07000085070000A4080000DE
:1046D8007D090000A108000057070000E30600005C
:1046E800BB06000089070000F8080000EE0700007C
:1046F8008D08000064080000810600002F070000F4
:10470800E6090000940900009007000097080000DF
:1047180048080000D2050000800700008509000055
:10472800880800003A070000AB080000E607000010
:10473800D404000041090000D70A0000F308000073
:1047480052080000840800002D070000BD06000084
:10475800AA0800008D08000079080000FE07000084
:10476800B9070000FD070000FF070000FF07000071
:104778001B0500003D0800008B04000076080000BF
:10478800630B0000C8060000760800009B090000C3
:104798003B070000280800001B08000086070000EF
:1047A80011080000210700008D070000CF08000055
:1047B8001C080000F207000055080000F60700007A
:1047C800F607000015080000F7070000EF070000D3
:1047D800F8070000E40700000F0800001C080000AC
:1047E800E1070000070800000B080000F1070000BF
:1047F800F807000030080000F2070000E00700009A
:10480800F8070000FA0700001E0800000108000071
:10481800FA0700000C080000FF070000F807000076
:10482800000800000B080000F1070000FA0700006C
:10483800F8080000A0050000830900005B070000DD
:1048480013090000F10600004E0800001D070000D3
:104858007D08000025080000F2070000D7070000C7
:10486800B70700003908000028080000E207000028
:10487800D208000008090000BE0700000208000076
:10488800640700009506000019070000B008000042
:10489800C008000049080000430800001A0800008A
:1048A800EF070000EE07000005080000D20700002F
:1048B80058080000A307000088070000EA08000065
:1048C8005E070000D408000044070000B10800009B
:1048D80008080000090600007D0800000E09000015
:1048E800CF09000092070000000900002006000020
:1048F80001090000000A000041080000A0070000AC
:10490800CA0600002108000047080000E00800006F
:10491800E8070000A60700005B0800005F08000029
:1049280005080000E607000009080000DB07000092
:1049380002060000E8080000C40600002507000081
:104948000E0A0000060700006C08000005070000BA
:104958008D080000500700002C08000076080000B1
:1049680067080000FF070000430700006D0700000C
:10497800F6080000FF0700004A080000C70700000B
:104988008A07000022080000F40700002E08000033
:10499800E30700000D080000190800000D080000DA
:1049A8001D080000AD0700001808000022080000DC
:1049B8009707000058080000E207000030080000D0
:1049C8000008000016080000EA070000EA070000D7
:1049D80020080000F507000007080000E2070000B3
:1049E8000E08000013080000F5070000C1070000CA
:1049F80039080000770700002B0800001E08000097
:104A0800F907000003080000EA070000E7070000B4
:104A1800100800000A080000FE070000F807000060
:104A2800EB070000FE0700000D0800009D090000CC
:104A3800540600007D090000A406000012090000C9
:104A48003707000082080000B707000006080000CA
:104A58000008000007080000EC070000F807000045
:104A68000908000001080000FE070000B806000061
:104A7800020D0000760600006F0900002205000004
:104A8800F00700006209000047080000D407000092
:104A9800A6070000B2070000D40700005108000074
:104AA800190800002408000025080000000B000079
:104AB800E8060000A608000032080000F30700001E
:104AC8000C090000FD050000FD0700007909000041
:104AD800120700009A08000037070000E3070000EB
:104AE8001809000071070000FE07000054080000C4
:104AF800F2060000B1090000D9090000E80700002B
:104B0800F5040000FD050000F10900001F09000080
:104B1800120800008E07000038080000490800004D
:104B28002A070000DF07000049080000D809000034
:104B3800FC0800006D090000930600006D080000E5
:104B480000080000E3070000B3060000E5080000C5
:104B580012080000890800009C07000018080000DF
:104B68001808000058070000370800006E0B000006
:104B78002807000068070000820900008D06000071
:104B8800650800004A0800002B060000CD0600005A
:104B9800F2080000B5080000220800004C080000D8
:104BA80006080000FD070000CE070000F00700001F
:104BB800AE070000E5070000CD070000FD07000074
:104BC8002E080000170800000F080000FE0700006C
:104BD800DE0700000E080000FA0700002B0800009E
:104BE800F6070000E5070000F40700007E08000053
:104BF800EB070000F107000012080000F2070000B0
:104C080029080000FA070000DE0700001408000069
:104C1800F3070000C807000025080000110800007D
:104C280001080000FB0700000308000098060000C8
:104C3800380A0000ED0900002E06000054090000A3
:104C48009E0700003D08000093070000A20700002F
:104C58003C08000045070000F00600006F0800004F
:104C68008408000064080000E4070000DD03000079
:104C7800A5060000C90B0000BA0700001F070000C6
:104C880070090000C7070000C6070000940800006C
:104C98003A0700000B080000CA070000C30600001E
:104CA8008E080000A8080000830700001E09000005
:104CB80009070000D20800001B07000032090000A5
:104CC800CC060000E20800001A070000FF070000F9
:104CD80090080000BB070000FF08000068060000FD
:104CE800900800002108000039070000290700008B
:104CF80065080000D90800000F080000310800000E
:104D080066070000440700000B080000E5080000E3
:104D1800920700000B080000E6070000AE0700003D
:104D280039080000E40700005708000039060000B1
:104D3800BA07000092050000EE0A0000D406000041
:104D48004E080000E2070000250800000C080000DB
:104D5800F40700003D080000A7070000D108000084
:104D68000A070000180800004208000007080000B1
:104D7800BE070000FA070000D007000089080000FD
:104D8800E4070000F207000008080000E60700003A
:104D98000E080000E70700000E08000010080000D9
:104DA800F1070000D70700003E08000010080000C7
:104DB80046080000B20700001D080000E1070000D7
:104DC800050800001008000003080000F8070000AC
:104DD8000E080000EB0700000108000010080000A2
:104DE80002080000F5070000FA070000E2070000CB
:104DF800DA07000061080000CE070000290800005B
:104E0800C1070000080800000408000005080000A9
:104E1800F30700000E08000005080000FA0700006C
:104E2800F70700000108000005080000B5030000AE
:104E3800280A000087060000CA0900009F06000033
:104E4800630900007A070000E40700007707000004
:104E580047090000790700005F0800000C07000000
:104E680005080000C3080000ED0700006B060000FD
:104E78005E080000750700000E0800009E0900008B
:104E8800760700002E070000B3070000F5070000B2
:104E9800B8080000E9070000BF070000120800007A
:104EA800DB0700000D08000007080000BE06000030
:104EB8005C0900008A0600000109000011070000D3
:104EC800D6080000C20700001E080000B607000050
:104ED800EC070000190800002D080000E507000095
:104EE800FF070000E7070000DA020000EC070000F7
:104EF800DD0800001C090000620900009C06000093
:104F0800640800007F070000F80600007808000029
:104F18006407000030090000BA07000032070000EB
:104F28005E080000B0070000E30700002408000046
:104F3800DD070000E6070000F70700007307000020
:104F4800F90800005907000076080000D1070000A2
:104F5800E60700000E0800001D0800000308000016
:104F6800F9070000120800001D0400004B060000AD
:104F7800E505000063060000E10B0000FB080000E7
:104F8800E60600002509000000080000B60700003A
:104F980033080000BC070000100800009C07000050
:104FA800AE06000085080000AA080000C20700003D
:104FB800930800001B0800009E070000030800007B
:104FC800FC070000090800003208000090070000F4
:104FD800F1070000190800000E0800000A08000088
:104FE800ED070000FD070000E407000004080000CA
:104FF800E0070000DF070000FF070000E9070000E6
:10500800190800001708000006080000FB07000048
:105018001D08000003080000D80700000A08000067
:10502800FC070000FC070000D6050000420900004C
:1050380000050000F30900002D08000047070000E4
:10504800DE08000080060000A808000080080000B4
:10505800AE07000015080000750700000B080000E7
:1050680076080000E30700001D080000160900008C
:10507800C6060000F706000001090000430700000B
:105088003E060000D007000009090000A60800003D
:10509800130800003B08000026080000F507000080
:1050A800F10700001208000064060000350900003E
:1050B80078060000C1080000D3070000550800006A
:1050C800E9070000F0070000FB070000A805000042
:1050D800B4060000710700007A070000BE0800004F
:1050E8003D0A000055070000AF070000AD050000AD
:1050F800AA060000600800001F090000ED09000072
:10510800230700002C07000070070000C8070000F4
:1051180001090000E90700003B08000084070000BF
:10512800E00700002C0800009E0200008D0A000025
:10513800260900003B090000A0050000CE08000079
:10514800040700002A090000C7070000090800003A
:10515800FD0700005D080000410700002908000065
:105168002D080000D707000070080000560700004F
:10517800B90700003A0800002408000009080000E8
:105188000D080000AA070000040800000708000036
:10519800130800000E08000060080000C2070000A5
:1051A800F5070000C3070000920700002808000068
:1051B8001308000043080000D90700000F0800008A
:1051C800CC0700001608000020080000EF070000C8
:1051D800F807000009080000E507000019080000AA
:1051E800E907000004080000240800000608000081
:1051F80019080000F0070000F9070000E2070000A6
:1052080044080000F207000001080000EA07000057
:10521800F707000019080000FF070000EC0700006E
:10522800090800000D080000C807000099080000E0
:1052380048070000D308000036070000AF08000048
:105248005607000099080000F90700000D08000043
:1052580005080000E707000007080000FD07000038
:10526800FF0700000608000068090000B6030000F8
:1052780016080000560A000020080000C7070000B2
:1052880094070000EB060000AF0900007507000056
:10529800F2070000CD070000A50800006A0700001B
:1052A80028080000D7070000C6090000C50600004E
:1052B8004909000000060000A108000002090000DA
:1052C80041070000B5090000F305000014080000BC
:1052D8009F0800007C080000E30700008607000024
:1052E800BC0700006B0800000A0A0000C6040000A2
:1052F800E00500009108000077090000DD090000C2
:10530800200700000F0700002D080000920700008A
:1053180064080000E1070000520800007C08000053
:10532800BE070000CF070000EF07000003080000D9
:10533800D8050000CD07000081090000BB07000068
:10534800EF0700006A0800008B0800008A070000C9
:10535800CB060000AE0800003C080000370800003B
:10536800E20700000C080000B8080000160500005D
:10537800650A0000740800005E060000D6090000F7
:105388000E070000EA0500006E080000ED080000A6
:10539800F5070000E807000008080000EE07000015
:1053A80017080000040800004D080000EE07000080
:1053B800A5070000C5070000E5070000FE0700007C
:1053C8001C080000F20700002E0800000608000074
:1053D8000E080000F6070000CE070000FB070000DB
:1053E8001908000015080000FA0700000C08000062
:1053F8001B080000F6070000E0070000190800007D
:10540800E70700001A080000EF070000CE070000B9
:10541800050800001A080000FF070000FC0700004C
:105428000D08000035030000E30B00001809000018
:105438008C090000ED070000AC0800001C08000003
:10544800D2070000DC07000051080000BC0600007D
:105458008E070000A6070000B00800005A080000E8
:10546800F0070000E30500003A0300008E0A000080
:10547800560A00004007000055090000A308000074
:10548800660700009B080000F4070000680700009A
:105498000B080000D5060000690700000D09000090
:1054A80022080000FE08000018070000030800009A
:1054B8000C080000120800005608000082070000CF
:1054C800A1080000310700002A080000F3090000C5
:1054D800AD0B0000300500007C070000410700000C
:1054E8002B0800004E0A00004A0800001F080000B0
:1054F8000E0500008B07000031090000E6080000D7
:105508009B080000FE07000008080000760700005E
:105518003A08000024080000E3070000D80700004C
:10552800CA070000A5040000FA0C000015060000D8
:10553800C50900004B050000780900007A07000043
:10554800FC08000071070000320800002E08000067
:105558008A070000CB070000B0080000D40700004D
:105568006B08000099070000C607000090080000BB
:10557800A507000044080000CB070000FB07000057
:10558800310800000E080000F00700007B0700004B
:10559800FB07000006080000140800002B080000A4
:1055A800D907000051080000B1070000EF0700000C
:1055B8003E080000E90700000D080000CC070000C5
:1055C80018080000DA0700000E0800000E080000A6
:1055D800030800000F080000F6070000EB070000B2
:1055E8000F0800001408000029080000FC0700004C
:1055F800C0070000FD0700001C08000000080000AC
:10560800E90700000B080000DF070000FD070000A5
:10561800F307000010080000F90700000208000066
:10562800EF0700003E0C000069060000CE080000ED
:10563800530700008107000024080000C10700008C
:105648006709000042070000EF0800004406000058
:105658007C080000CD08000006080000F5070000DF
:105668008B070000BD0B0000ED070000820800005A
:105678003A0700008D050000BB0900008B080000F8
:1056880005090000950700003E06000023090000F8
:10569800020800006C080000CC0700005A07000050
:1056A80093080000A5060000DD0800009A07000026
:1056B8008E070000CA08000065070000B308000054
:1056C8004E070000EC07000055080000D80700004E
:1056D800FD070000FC070000F40700001E0800009A
:1056E8000E0800008A0A000058090000EA070000B6
:1056F800010700002A060000320800000309000024
:10570800850900006A0800004F0700001F07000015
:105718002C080000B708000044080000D807000063
:105728005D07000024090000230700006A09000043
:10573800EE060000A9080000190700000209000091
:1057480081070000CF0800008C070000B8060000A1
:105758005707000089080000F00800008E080000C4
:1057680092070000FF07000000000000080000008A
:1057780010000000180000002000000028000000B1
:105788003000000038000000400000004800000021
:105798005000000058000000600000006800000091
:1057A8007000000078000000800000008800000001
:1057B8009000000098000000A0000000A800000071
:1057C800B0000000B8000000C0000000C8000000E1
:1057D800D0000000D8000000E0000000E800000051
:1057E800F0000000F80000000001000008010000BF
:1057F800100100001801000020010000280100002D
:10580800300100003801000040010000480100009C
:10581800500100005801000060010000680100000C
:10582800700100007801000080010000880100007C
:105838009001000098010000A0010000A8010000EC
:10584800B0010000B8010000C0010000C80100005C
:10585800D0010000D8010000E0010000E8010000CC
:10586800F0010000F8010000010200000902000038
:1058780011020000190200002102000029020000A4
:105888003102000039020000410200004902000014
:105898005102000059020000610200006902000084
:1058A80071020000790200008102000089020000F4
:1058B8009102000099020000A1020000A902000064
:1058C800B1020000B9020000C1020000C9020000D4
:1058D800D1020000D9020000E1020000E902000044
:1058E800F1020000F90200000103000009030000B2
:1058F8001103000019030000210300002903000020
:10590800310300003903000041030000490300008F
:1059180051030000590300006103000069030000FF
:10592800710300007903000081030000890300006F
:105938009103000099030000A1030000A9030000DF
:10594800B1030000B9030000C1030000C90300004F
:10595800D1030000D9030000E1030000E9030000BF
:10596800F1030000F903000001040000090400002D
:10597800110400001904000021040000290400009B
:10598800310400003904000041040000490400000B
:10599800510400005904000061040000690400007B
:1059A80071040000790400008104000089040000EB
:1059B8009104000099040000A1040000A90400005B
:1059C800B1040000B9040000C1040000C9040000CB
:1059D800D1040000D9040000E1040000E90400003B
:1059E800F1040000F90400000105000009050000A9
:1059F8001105000019050000210500002905000017
:105A08003105000039050000410500004905000086
:105A180051050000590500006105000069050000F6
:105A28007105000079050000810500008905000066
:105A38009105000099050000A1050000A9050000D6
:105A4800B1050000B9050000C1050000C905000046
:105A5800D1050000D9050000E1050000E9050000B6
:105A6800F1050000F9050000020600000A06000022
:105A7800120600001A060000220600002A0600008E
:105A8800320600003A060000420600004A060000FE
:105A9800520600005A060000620600006A0600006E
:105AA800720600007A060000820600008A060000DE
:105AB800920600009A060000A2060000AA0600004E
