:020000040800F2
:10000000000002205D1300084509000849090008A6
:100010004D090008510900085509000800000000BA
:100020000000000000000000000000005909000866
:100030005D0900080000000061090008650900086A
:10004000AD130008AD130008AD130008AD13000890
:10005000AD130008AD130008AD130008AD13000880
:10006000AD130008AD130008AD130008AD13000870
:10007000AD130008AD130008AD130008AD13000860
:10008000AD130008AD130008AD130008AD13000850
:10009000AD130008AD130008AD130008AD13000840
:1000A000AD130008AD130008AD130008AD13000830
:1000B000AD130008AD130008AD130008AD13000820
:1000C000AD130008AD130008AD130008AD13000810
:1000D000AD130008AD130008AD130008AD13000800
:1000E000AD130008AD130008AD130008AD130008F0
:1000F000AD130008AD130008AD130008AD130008E0
:10010000AD130008AD130008AD130008AD130008CF
:10011000AD130008AD130008AD130008AD130008BF
:10012000AD130008AD130008AD130008AD130008AF
:10013000AD1300080000000000000000AD1300082F
:10014000AD130008AD130008AD130008AD1300088F
:10015000AD130008AD130008AD130008AD1300087F
:10016000AD130008AD130008AD130008AD1300086F
:10017000AD130008AD130008AD1300080000000027
:1001800000000000AD1300080000000000000000A7
:10019000AD1300080000000000000000AD130008CF
:1001A000000000000000000000000000AD13000887
:1001B000AD130008AD130008AD130008AD1300081F
:0401C000AD13000873
:1001C40010B5054C237833B9044B13B10448AFF38D
:1001D40000800123237010BD3800002000000000BF
:1001E4000814000808B5034B1BB103490348AFF3D7
:1001F400008008BD000000003C0000200814000836
:100204007BB972B90029BEBF00204FF0004106E05F
:1002140008BF00281CBF6FF000414FF0FF3000F012
:10022400D3B9ADF1080C6DE904CE002909DB002B2C
:100234001ADB00F04DF8DDF804E0DDE9022304B038
:100244007047404261EB4101002B1BDB00F040F89A
:10025400DDF804E0DDE9022304B0404261EB410132
:10026400524263EB43037047524263EB430300F093
:100274002FF8DDF804E0DDE9022304B0404261EB2D
:1002840041017047524263EB430300F021F8DDF86B
:1002940004E0DDE9022304B0524263EB43037047F8
:1002A40053B94AB9002908BF00281CBF4FF0FF31D9
:1002B4004FF0FF3000F088B9ADF1080C6DE904CEC1
:1002C40000F006F8DDF804E0DDE9022304B070472D
:1002D4002DE9F047089D8E4604468846002B4AD1F6
:1002E4008A42174662D9B2FA82F64EB1C6F12003A9
:1002F40001FA06F820FA03F3B74043EA0808B440C9
:100304004FEA174E1FFA87FCB8FBFEF1230C0EFBD5
:10031400118843EA084301FB0CF29A4209D9FB18FD
:1003240001F1FF3080F0EA809A4240F2E78002391E
:100334003B449A1AA3B2B2FBFEF00EFB102243EA2E
:10034400024300FB0CFC9C4509D9FB1800F1FF3269
:1003540080F0D6809C4540F2D3803B44023840EA8A
:100364000140A3EB0C0300211DB1F3400022C5E9B9
:100374000032BDE8F0878B4205D90DB1C5E9000113
:1003840000210846F5E7B3FA83F1002946D1734505
:1003940002D3824200F20581841A6EEB030201202B
:1003A4009046002DE5D0C5E90048E2E7002A00F0B8
:1003B4009080B2FA82F6002E40F0A4808A1A030CD0
:1003C4004FEA174E80B2BCB20121B2FBFEFC0EFB19
:1003D4001C2243EA024304FB0CF29A4207D9FB189D
:1003E4000CF1FF3802D29A4200F2E080C4469B1A14
:1003F400B3FBFEF20EFB123340EA034302FB04F4A8
:100404009C4207D9FB1802F1FF3002D29C4200F251
:10041400CA8002461B1B42EA0C40A5E7C1F1200634
:100424008B4022FA06F71F430EFA01F420FA06F372
:100434002EFA06FE4FEA1749234300FA01F81FFA81
:1004440087FCBEFBF9F01C0C09FB10EE44EA0E44D9
:1004540000FB0CFEA64502FA01F209D93C1900F191
:10046400FF3A80F09C80A64540F2998002383C44D3
:10047400A4EB0E041FFA83FEB4FBF9F309FB134447
:100484004EEA044403FB0CFCA44508D93C1903F1CF
:10049400FF3E80F08280A4457FD9023B3C4443EA7E
:1004A4000040A4EB0C04A0FB02EC64457346E14657
:1004B40062D35FD05DB1B8EB030264EB090404FAC4
:1004C40006F622FA01F31E43CC40C5E9006400217C
:1004D4004FE7B1FBF2FC010C41EA0E4180B240EA65
:1004E40001423B4638463C46B846BE462026B1FB50
:1004F400F7F1A2EB080241EA0C4166E7014618E76E
:1005040010462CE7C6F120022EFA02F3B740B140A0
:1005140020FA02F24FEA174E0A43B3FBFEF8BCB2CC
:100524000EFB1833110C41EA034108FB04F9B040F7
:1005340089454FEA104380B23ED9791808F1FF3C4F
:1005440001D289451FD8A1EB0901B1FBFEF909FBD2
:1005540004F80EFB191192B242EA0142424529D233
:10056400BA1809F1FF31C4D24245C2D2A9F102013D
:100574003A44BEE7F0459DD2BEEB02036CEB070C98
:100584000138E14696E7A7EB09094944A8F1020CB2
:10059400B1FBFEF909FB04F8DBE773467FE750463D
:1005A40066E70846FDE63B44023A33E7ACF1020C49
:1005B4003B441CE749469CE7A1EB0901C446B1FB57
:1005C400FEF909FB04F8C4E7704700BF10B594B006
:1005D4003022002107A800F0E8FE022400230121B4
:1005E400102206A8CDE90912CDE90233CDE904337E
:1005F4000694019300F0C6FA08B172B6FEE701460C
:10060400072301A8CDE90131CDE9031100F0C6F9B2
:1006140008B172B6FEE714B010BD00BF2DE9F04F6B
:100624008BB0B1F1000E03900EDD00236E490398E8
:1006340017469C461A4600280FDC5B1802F101029B
:100644004CF1000C9645F6D14FF0000BCDF804B0F8
:10065400019958460BB0BDE8F08F0399DFF89081FB
:10066400CDF824E04FF0000BC917CDF804B0049185
:100674001D46E146CDF808B0CDE906590892DDE9FA
:100684000323DDE90601FFF7BBFD0025A0F5742473
:10069400A4F51074AB462E46002F544B74DDDDE9EF
:1006A400032328465946FFF7ABFDA0F51810A0F523
:1006B4001650FB1720380593B2460026B446B646BA
:1006C400334631463246B146CDF800A001E0C2457A
:1006D40045DC02FB01F103FB0911A2FB03A21AEBA7
:1006E4000A0A114449414FEA1A4AACEB06024AEAA3
:1006F400014AA24402448AFB0A6182FB02C30EF14E
:10070400010E4FEA1C4C360C4CEA034C46EA0146F7
:10071400534677450CEB060A4FEAE2794FEAE37158
:10072400D5D1029B019A0599DDF800A0FB1842EB94
:10073400010201922D4A0293AD18039A0AF1010AAB
:100744004BF1000B52453ED0049B28465946FFF717
:1007540057FDA0F51810A0F516502038ADE7029B00
:10076400019ADDF800A01EEB030342EBEE72019246
:100774001E4A0293039BAD180AF1010A4BF1000BC8
:1007840053450AD0039ADFE7ED18039B06F10106EF
:100794004BF1000BB3427FF47FAF0699124B089ADA
:1007A400CB180693079B43F100030793099B01327F
:1007B4009A4208927FF463AFDDF808B00199584675
:1007C4000BB0BDE8F08FDDE90659074B089AEB182A
:1007D4001D46099B02F1010249F1000993427FF48D
:1007E4004BAFDDF808B0E9E780841E00E067350010
:1007F40000093D002DE9F04F89B000F065FDFFF7D9
:10080400E5FE0022CDE90222CDE90422414B00920B
:100814000692196B4048DFF820A1DFF8209141F0DF
:1008240002011963196B01F0020100910099019210
:10083400196B41F0010119631B6B03F00103019370
:100844000321019B032400F0AFFC012500220023B7
:10085400314802A9CDE90245CDE9042300F096FB15
:1008640001222D482D4D2E4C114600F09DFC4FF0D9
:10087400E0272E685AF8048B00F04CFDC9F80000FC
:1008840000F048FDBB69C0EB006230466FF07F4664
:10089400F31A1344234A1360234B41461A68FFF7A3
:1008A400BDFE8846834600F035FDBB69C0EB0060A1
:1008B400F61A1E4B06441E6000F02CFD1C4B1860FB
:1008C400D9F800300026C01A55F8043B2360A06014
:1008D40001220221C4E904B80F48E66000F064FC78
:1008E4004FF47A7000F01CFD0B483246022100F0F0
:1008F4005BFC104B9D4204F11804BAD10648064C27
:100904003246012100F050FC00220121204600F073
:100914004BFCF9E7003802400004024018000020B4
:1009240058000020D400002000000020D000002047
:10093400D80000202C00002004000020DC0000204F
:10094400FEE700BFFEE700BFFEE700BFFEE700BF13
:10095400FEE700BF704700BF704700BF704700BF8D
:1009640000F0CCBC82B00C4B002100915A6C42F4D4
:1009740080425A645A6C02F480420092009A0191B7
:100984001A6C42F080521A641B6C03F0805301937A
:10099400019B02B0704700BF00380240002800F0FD
:1009A4008780484A136803F00F038B422DE9F04116
:1009B4000D46044609D2CBB21370136803F00F033B
:1009C4008B4202D00120BDE8F0812368980714D53A
:1009D400590704D53C498A6842F4E0528A601A07F0
:1009E40004D539498A6842F460428A603649A0686D
:1009F4008A6822F0F00202438A60DF0721D5626828
:100A0400012A57D0931E012B2F4B1B684DD99907F0
:100A1400D8D52D4EB36823F003031343B36000F01D
:100A240079FC41F28838074604E000F073FCC01BEF
:100A3400404544D8B368626803F00C03B3EB820FFB
:100A4400F3D1204A136803F00F03AB4206D9EBB28B
:100A54001370136803F00F03AB42B3D123685A0732
:100A640006D51949E0688A6822F4E05202438A6094
:100A74001B0707D5144A2169936823F4604343EAAA
:100A8400C103936000F028F80F4A104C9268104993
:100A9400C2F303120346A25C0E48D34000680B6005
:100AA40000F0EEFB0020BDE8F0819801B1D489E7A5
:100AB40001207047044B1B689E03AAD482E70320DD
:100AC40081E700BF003C02400038024020140008C7
:100AD4003400002030000020274908B58B6803F05B
:100AE4000C03082B1DD00C2B05D0244A2448042BBE
:100AF40018BF104608BD4A684B68496813F4800360
:100B040002F03F022ED11D48C1F38811A1FB000160
:100B1400FFF7C6FB184B5B68C3F30273B0FBF3F03B
:100B240008BD4A684B68496813F4800302F03F0229
:100B34000FD11248C1F38811A1FB0001FFF7B0FBEC
:100B44000D4B5B68C3F3014301335B00B0FBF3F06F
:100B540008BD0B48C1F388110023A1FB0001FFF776
:100B64009FFBEDE70648C1F388110023A1FB0001B8
:100B7400FFF796FBCEE700BF003802400024F400E4
:100B840040787D01002800F0FB812DE9F0410368E5
:100B9400DE0782B0044636D5A1498A6802F00C0209
:100BA400042A00F0DE808A6802F00C02082A00F0B1
:100BB400D4809B498A6802F00C020C2A00F004815C
:100BC4006368B3F5803F00F01881B3F5A02F00F0FF
:100BD4009281934D2A6822F480322A602A6822F492
:100BE40080222A60002B40F00D8100F093FB064622
:100BF40005E000F08FFB801B642800F2FA802B686C
:100C04009F03F6D423689D072FD5854A916811F078
:100C14000C0F00F09980916801F00C01082900F094
:100C24008F807F498A6802F00C020C2A00F05E81F2
:100C3400E368002B00F012817A4B794E01221A608E
:100C440000F068FB054605E000F064FB401B022849
:100C540000F2CF8033689F07F6D53368226923F00A
:100C6400F80343EAC203336023681A0752D45D07CA
:100C740030D56B4A136C13F0805300F09980002533
:100C8400694E3368D80540F1A480A368012B00F0B5
:100C9400CD80052B00F03981614E326F22F00102C4
:100CA4003267326F22F004023267002B40F0C380B7
:100CB40000F030FB41F28838074605E000F02AFBDB
:100CC400C01B404500F29580336F9B07F6D4002D7E
:100CD40040F00681A369CBB1514DAA6802F00C0221
:100CE400082A00F0CC80022B4E4B4FF000021A660B
:100CF40000F0158100F00EFB044604E000F00AFB4E
:100D0400001B022875D82B689B01F7D4002002B081
:100D1400BDE8F0816369002B2DD0424B404E012287
:100D2400C3F8802E00F0F6FA054604E000F0F2FA6B
:100D3400401B02285DD8736F9B07F7D5236896E79D
:100D4400526850023FF56DAF354A1268920723D5B9
:100D5400E268012A20D00120D9E74A6855027FF5CC
:100D640028AF2F4A126892037FF54DAF6268002ABC
:100D74007FF449AFEFE72B4A294EC2F8803E00F0DA
:100D8400C9FA054604E000F0C5FA401B022830D831
:100D9400736F9F07F7D4D1E7214920690A6822F0CD
:100DA400F80242EAC0020A601A077FF560AFB1E7B1
:100DB4000193136C43F080531364136C03F080535A
:100DC4000193019B01255BE74A6851027FF5F8AE68
:100DD400C7E7336843F48073336000F09BFA074637
:100DE4003368D9053FF551AF00F094FAC01B0228CF
:100DF400F6D9032002B0BDE8F081094A136843F430
:100E04008033136000F086FA054E054604E000F0D6
:100E140081FA401B6428ECD833689B03F7D5F1E6CC
:100E2400003802400000474200700040554A136FEA
:100E340043F00103136700F06DFA524F064641F286
:100E4400883804E000F066FA801B4045D1D83B6F37
:100E54009A07F7D5002D3FF43DAF41E04A4A494E89
:100E6400136000F057FA054604E000F053FA401B03
:100E74000228BED833689907F7D42368F5E6012B16
:100E84003FF469AF6B68E26903F4800191427FF437
:100E940062AF226A03F03F0191427FF45CAF616A62
:100EA40047F6C0721A40B2EB811F7FF454AFA26AB6
:100EB400520803F44031013AB1EB024F7FF44BAFD7
:100EC400E16A03F07062B2EB016F7FF444AF226B0E
:100ED40003F0E043B3EB027F14BF0120002016E7C8
:100EE400284A136C23F080531364F3E64A685102D2
:100EF4003FF59EAE28E7234B1A6842F480221A601D
:100F04001A6842F480321A607CE71E4B1A6F42F072
:100F140004021A671A6F42F001021A678BE700F0A5
:100F2400F9F9064605E000F0F5F9801B02283FF6C2
:100F340060AF2B689901F6D4D4E90731626A0B4398
:100F440043EA8213D4E90A20216B43EA006352087E
:100F540043EA0173013A0C4943EA024301226B60FC
:100F64000A6600F0D7F9074D044605E000F0D2F90F
:100F7400001B02283FF63DAF2B689A01F6D5C5E663
:100F84000120704700380240000047422DE9F04F2D
:100F940000230C68DFF8FCA185B04FF0010B8946F3
:100FA40003E00133102B00F08C800BFA03F202EA09
:100FB4000408A243F5D1D9F8041001F0030C5A0037
:100FC40003250CF1FF369540012E6FEA05057BD908
:100FD400BCF1030F40F0CE8006680CFA02F23540F3
:100FE4002A4311F4403F0260DBD000220392DAF876
:100FF400442042F48042CAF84420DAF8442002F43F
:1010040080420392039A23F0030202F1804203F028
:1010140003060F2702F59C32B60007FA06FC5A4F66
:101024009568B84225EA0C0522D007F58067B842D6
:1010340000F08280554FB84200F08480DFF858C138
:10104400604500F08580DFF854C1604500F086807B
:10105400DFF84CC1604500F08780DFF848C1604587
:101064000CBF4FF0060C4FF0070C0CFA06F6354394
:101074009560474A9268CE026FEA0805444E54BF11
:101084002A4048EA0202B260F268414E8F0254BF1D
:101094002A4048EA0202F26072688E033C4E54BF52
:1010A4002A4048EA020272603268C90303F101036C
:1010B400374954BF2A4048EA0202102B0A607FF4E1
:1010C40074AF05B0BDE8F08F866806EA050ED9F85E
:1010D4000C60964046EA0E068660466826EA080ECC
:1010E400C1F300169E4046EA0E064660C66806EA4C
:1010F400050ED9F80860964046EA0E06BCF1020FC8
:10110400C6607FF469AFDE0800EB86060196376A95
:10111400D9F81060009703F0070E4FEA8E0E0F27E0
:1011240006FA0EF607FA0EFE009F27EA0E0E019F3E
:1011340046EA0E063E624FE74FF0010C0CFA06F643
:10114400354395E74FF0020C0CFA06F635438FE76A
:101154004FF0030C0CFA06F6354389E74FF0040C04
:101164000CFA06F6354383E74FF0050C0CFA06F645
:1011740035437DE7C66806EA050ED9F8086096404F
:1011840046EA0E06C66027E7000002400008024057
:10119400003C014000380240000C024000100240B4
:1011A400001402400018024002B90904816170472A
:1011B4000749CA6803024FF6FF0003F4E0630240E4
:1011C400134343F0BF6343F40033CB60704700BF65
:1011D40000ED00E01B4BDB68C3F3022300B5C3F151
:1011E400070EBEF1040F03F1040C28BF4FF0040EE8
:1011F400BCF1060F1CD9A3F1030C4FF0FF3303FA23
:101204000CF322EA03024FF0FF3303FA0EF321EA50
:10121400030303FA0CF313431B010028DBB20ADBBC
:1012240000F1604000F5614080F800335DF804FB94
:1012340000229446E7E7044A00F00F0002441376C4
:101244005DF804FB00ED00E0FCEC00E00138B0F1D7
:10125400807F01D30120704710B44FF0E023074C86
:1012640058614FF0F00C84F823C000220721104687
:101274009A615DF8044B1961704700BF00ED00E00E
:1012840038B50E4A0E4B1278054618684FF47A7337
:10129400B3FBF2F3B0FBF3F0FFF7D8FF08B90F2D5F
:1012A40001D9012038BD0446024629464FF0FF30DB
:1012B400FFF790FF034B20461D6038BD2C00002033
:1012C400340000203000002008B50B4B1A6842F4AB
:1012D40000721A601A6842F480621A601A6842F452
:1012E40080721A600320FFF763FF0F20FFF7C8FF27
:1012F400FFF738FB002008BD003C0240034A044BC2
:1013040011681B780B441360704700BFE000002095
:101314002C000020014B1868704700BFE00000203B
:1013240038B50446FFF7F6FF631C054602D0044BAC
:101334001B781C44FFF7EEFF401BA042FAD338BDD4
:101344002C000020034AD2F8883043F47003C2F81A
:101354008830704700ED00E0DFF834D0FFF7F2FF8B
:101364000C480D490D4A002302E0D458C4500433FC
:10137400C4188C42F9D30A4A0A4C002301E01360D2
:101384000432A242FBD300F019F8FFF733FA704796
:101394000000022000000020380000204014000853
:1013A40038000020E4000020FEE702440346934294
:1013B40000D1704703F8011BF9E7000070B50D4D2B
:1013C4000D4C641BA4100026A64209D10B4D0C4CF5
:1013D40000F018F8641BA4100026A64205D170BDC5
:1013E40055F8043B98470136EEE755F8043B984717
:1013F4000136F2E7381400083814000838140008DD
:101404003C140008F8B500BFF8BC08BC9E46704701
:0C141400F8B500BFF8BC08BC9E4670474D
:101420000000000000000000010203040607080994
:08143000A4EEFF7F01000000A3
:04143800E9010008BE
:04143C00C5010008DE
:101440006400000080000000A0000000C000000058
:10145000E00000000001000080000000A00000008B
:10146000C0000000E00000000001000001000000DA
:08147000100000000024F4004C
:040000050800135D7F
:00000001FF
