:020000040800F2
:1000000000200020A92B00084D2200084F220008E4
:1000100000000000000000000000000000000000E0
:100020000000000000000000000000005122000855
:1000300000000000000000005322000855220008C4
:10004000F92B0008F92B0008F92B0008F92B000800
:10005000F92B0008F92B0008F92B0008F92B0008F0
:10006000F92B0008F92B0008F92B0008F92B0008E0
:10007000F92B0008F92B0008F92B0008F92B0008D0
:10008000F92B0008F92B000800000000F92B0008EC
:10009000F92B0008F92B0008F92B0008F92B0008B0
:1000A000F92B0008F92B0008F92B0008F92B0008A0
:1000B000F92B000800000000F92B000800000000E8
:1000C00010B5064C2378002B07D1054B002B02D02E
:1000D000044800E000BF0123237010BD3800002059
:1000E00000000000542C0008044B10B5002B03D076
:1000F0000349044800E000BF10BDC04600000000F6
:100100003C000020542C0008002243088B4274D38A
:1001100003098B425FD3030A8B4244D3030B8B4208
:1001200028D3030C8B420DD3FF22090212BA030C11
:100130008B4202D31212090265D0030B8B4219D3F2
:1001400000E0090AC30B8B4201D3CB03C01A524112
:10015000830B8B4201D38B03C01A5241430B8B425A
:1001600001D34B03C01A5241030B8B4201D30B0343
:10017000C01A5241C30A8B4201D3CB02C01A52416A
:10018000830A8B4201D38B02C01A5241430A8B422D
:1001900001D34B02C01A5241030A8B4201D30B0216
:1001A000C01A5241CDD2C3098B4201D3CB01C01A30
:1001B000524183098B4201D38B01C01A524143093A
:1001C0008B4201D34B01C01A524103098B4201D328
:1001D0000B01C01A5241C3088B4201D3CB00C01A95
:1001E000524183088B4201D38B00C01A524143080D
:1001F0008B4201D34B00C01A5241411A00D2014632
:10020000524110467047FFE701B5002000F006F8A4
:1002100002BDC0460029F7D076E770477047C04658
:100220008446100062468C461900634600E0C046D2
:100230001FB500F069FF002801D40021C8421FBD8E
:1002400010B500F0A9FE4042013010BD10B500F01D
:100250005BFF002801DB002010BD012010BDC0465F
:1002600010B500F051FF002801DD002010BD012075
:1002700010BDC04610B500F0D3FE002801DC002000
:1002800010BD012010BDC04610B500F0C9FE002809
:1002900001DA002010BD012010BDC046F0B5574660
:1002A0004E464546DE46E0B583B0009001910C0312
:1002B0004F00CE0F610A009C1D03640F0C43009990
:1002C00000920193C80059004B0D9946009A019B7A
:1002D0006D0AD90F530F2B439A46009B7F0DDA000E
:1002E00094464A46B046BA1A8E4200D1B0E0002A7F
:1002F00000DC78E04946002900D1E9E0C9498F4295
:1003000000D195E10125382A16DC802153460904E5
:100310000B439A461F2A00DDE7E1202155468B1A40
:1003200061469D40D1400D43614699404B1E994125
:100330005346D3400D43E41A451BA8428041404236
:10034000241A230200D40FE16402640A002C00D1B5
:1003500039E1200001F0DCFD0300083B20212800EA
:10036000CA1AD0409C4002009D4022439F4200DDBB
:1003700073E1D81B0130091A2C008D40C4406B1E5C
:100380009D411300C2408B402543002714001D43AC
:100390006B0709D00F232B40042B05D02B1DAB423C
:1003A000AD416D4264191D00230200D42DE19D4A28
:1003B0000137974200D1D3E046469B49ED082140E2
:1003C0004A072A437C054D022D0B640D24052C435E
:1003D000F60734431000210003B0F0BCBB46B24620
:1003E000A946A046F0BD002A00D184E04A46D21BAF
:1003F000002F00D06DE12500054300D127E1561EF6
:10040000012A00D13BE2874DAA4200D16AE20125D0
:10041000382E12DC32001F2A00DDF8E120262500EC
:10042000B61A07005346B040D440B540D740461EE8
:10043000B0411B1B9A463D4305436246551BAC45E4
:100440009241534652420E004F4688469C1A78E726
:10045000002A00DC8EE04946002975D161465346EA
:10046000194300D1F6E0511E012A00D191E16D4DF2
:10047000AA4200D1DCE00125382914DC0A001F2A39
:1004800000DDA2E120215346891A8B401D006346FE
:10049000D3401D4363468B4019004B1E9941534680
:1004A000D3400D43E4182D18854280414042241862
:1004B000230259D55B4B01379F4251D001215A4B42
:1004C0006A081C4029400A43E507154364085FE7B2
:1004D00061465346194300D1BCE0511E012A00D1A8
:1004E00064E1504DAA4200D16AE10125382900DDBE
:1004F00022E70A000EE74D4A7D1C154200D0D0E0ED
:1005000025006246534605431A43002F00D037E1C9
:10051000002D00D1A8E1002A00D16AE16346C51A86
:100520005346E21AA8429B415B42D31A1A0200D4F6
:1005300003E263461D1AAC459241534652421C1BCE
:100540000E008846A41A23E736498F4270D0012551
:10055000382AA8DC8021534609040B439A468EE7CB
:100560003C000025002231E707232B40002B00D060
:1005700010E793E0002A74D04A46D21B002F00D126
:10058000C7E02849894500D185E10125382A12DCD8
:10059000802109040C431F2A00DDABE12021250046
:1005A000891A070088408D40D740411E8841D440B9
:1005B0003D430543A244654465459241524252443D
:1005C00014004F4674E7280001F0A2FC0300183322
:1005D0001F2B00DCC2E62A00083882409F4200DD63
:1005E000A9E0DB1B581C1F2800DCACE115001F3BF9
:1005F000DD40202805D040231B1A9A40531E9A4103
:100600001543072300272B40B0E7ED08054B620791
:100610002A43E4089F420FD02403250B7C05640D78
:10062000D4E6C046FF070000FFFF7FFFFE07000083
:10063000C00862070243E4081300234300D186E1A7
:1006400080252D0325432D03C34C2D0BBEE66046AC
:1006500054460E001700C508D8E7C04CFF1A1440D6
:1006600096E6BF4A791C11426BD122000243002F4B
:1006700000D0DBE0002A00D12DE1624653461A4348
:1006800000D1B6E06346C5188542804154444042DB
:100690002418230202D50F00B04B1C403A0028005A
:1006A000D8E76246851AA842924153465242914683
:1006B000E31A1A004B46D21A130091461A0254D478
:1006C0004A464C462A4300D040E600260024002536
:1006D0007CE6A14DA94500D190E00125382A00DD36
:1006E000ABE680252D042C4395E6110055462039B4
:1006F000CD40A946202A06D0402153468A1A93406D
:1007000062461A43944665466B1E9D414B461D4307
:1007100012E62100014300D1C4E0511E012A00D19C
:10072000FBE08D4DAA4200D1B5E00125382900DD5E
:1007300041E70A002FE7894CFF1A14406207E408DA
:100740006AE7854A914200D1E3E06346C2188242DB
:1007500080412300404253441B18DD075C080723F7
:10076000520815430F002B4000E763461D1AAC45A5
:100770009241534652421C1B0E008846A41AE5E5DE
:10078000002D00D091E0002A38D1802400262403D7
:1007900056E76346C51885428041544440422418B8
:1007A0000127230200D4DFE6022787E66346C51A45
:1007B000A842804153464042E41A0127241AC0E56A
:1007C0006207C0080243E40836E7110053462039A7
:1007D000CB409946202A06D0402153468A1A93409E
:1007E00062461A43944665466B1E9D414B461D4327
:1007F00059E66207C0080243E4080DE753465A076A
:100800006346D80853460E000243DC0814E715007F
:100810002600203DEE40202A03D04025AA1A94400D
:100820002043421E90410500354306E6002A7CD055
:1008300062465346C0081A4300D1FAE662071043E5
:100840008022E4081203144208D0D908114205D1CD
:100850006346D80853460C005B071843420FC0009C
:10086000C00852070243E7E6002A00D12DE763469D
:10087000D80853465A070E000243DC08CCE663460C
:100880001D1AAC459241534652421C1B0E0088462D
:10089000A41A013755E56346D90853465A070A4357
:1008A000DC08C9E660465446D4E6C008002A00D1F8
:1008B000BFE6620710438022E40812031442CDD041
:1008C000DD081542CAD16346D80853465B070E00BF
:1008D0002C001843C2E76346D90853465A070A4317
:1008E000DC0899E66346D80853465A070E000243CF
:1008F000DC08A1E6110027002039CF40202A03D0D0
:1009000040218A1A94402043421E904105003D43F5
:1009100051E60C000025002258E5604460459241F4
:10092000544452420500A4183AE753465A07634616
:10093000D90853460A43DC087EE61A001C002A4305
:1009400000D0ABE6C1E620210025091A19E50022F6
:100950000025014C3AE5C046FF070000FFFF7FFF7E
:10096000FE070000F0B5DE46454657464E46E0B568
:1009700087B0009201930B031B0B9B46CA0F4B00E1
:10098000040080465B0D029200D16AE1D44A934292
:1009900000D18CE15946420FC9000A438021090465
:1009A0001143C2009046CF4A894692469A4400239A
:1009B00000240393009E019F3B031B0B9B467B007F
:1009C00030005B0DFD0F002B00D128E1C44A93429B
:1009D00000D177E15946720FC9000A43802109040A
:1009E00011438B46BF49F2008C4651466344CB1AF3
:1009F0009A460023029E6E400F2C27D8BA49A400C5
:100A000009598F46CB464246029E039B022B16D0C5
:100A1000032B00D1A6E2012B00D0DFE0002200234F
:100A2000002490461B052343F60733434046190034
:100A300007B0F0BCBB46B246A946A046F0BD0022B6
:100A400000249046A64BEDE72E00DFE7CB4500D211
:100A5000D4E100D1CFE101235B429C4644464846A5
:100A60000027E2445B46150E1B021D43190C2B04A4
:100A7000120200951D0C914602910395FFF7CAFBE7
:100A800002006A430B04210C804619438A4209D9AB
:100A9000009D0123AC465B4261449C46E0448D428C
:100AA00000D8FBE1881A0299FFF7B4FB039A2404EB
:100AB00042430904240C03000C43A24206D90099C6
:100AC000013B8C466444A14200D8E1E1A01A4246B1
:100AD00012041A4393464B4659461B0C1D000493BF
:100AE0000B0449460904090C0C001B0C5C43120C56
:100AF0006B43884651436A43250CAC465B186344FC
:100B0000994203D9802149028C466244190C24047D
:100B10001B04240C8A181C19904202D316D1A74238
:100B200014D25B46009D013B4F4405934F459B41CA
:100B3000AC465B426344C018854200D3A1E18242C7
:100B400000D9F6E100D1F1E1059B9B463C1BA74291
:100B5000BF41009D801A7F42C01B854200D1D0E179
:100B60000299FFF757FB039A0B044243210C07003D
:100B700019438A4200D978E1881A0299FFF74AFBA3
:100B8000039A240442430904240C03000C43A242A8
:100B900000D95DE14146A41A3A041A43049D1304A6
:100BA0001B0C594347466B439C46100C47430B0CA8
:100BB000BC44634468439F4203D980256D02AC4620
:100BC00060441F0C09041B04090C3F185B18BC424D
:100BD00000D202E100D1FDE001231A43434B53440C
:100BE000002B00DCAEE0510700D098E15946C90166
:100BF00006D559463E4B194080238B46DB005344B3
:100C00003C498B4200DD1AE75946D2084907114397
:100C10005A465B0554028846240B5B0D02E75A4690
:100C2000009B1A4300D17EE05B46002B00D100E11F
:100C3000584601F06DF9020003000B3A1D27009E93
:100C4000BA1A19005846D640083988403200024383
:100C50009346009A8A40284953448A469A4400237E
:100C6000C8E65B460343994656D05B46002B00D14D
:100C7000CDE0584601F04CF90B235B429C46020044
:100C8000844466461D239B1B260011005846DE4007
:100C90000839884033000343994623008B40984627
:100CA000164B00249B1A9A460023039382E65A4669
:100CB000024391462AD100229A46022390460824F4
:100CC000039377E65A46009B1A430D4B9C46E24439
:100CD000002A17D102231C4300239B46023389E6D6
:100CE000FF07000001FCFFFF6C2C0008FF03000061
:100CF000FFFFFFFEFE070000F30300000DFCFFFFF7
:100D000001F8FFFF032332001C4373E69A460323D6
:100D1000D9460C2403934DE6002398469A460133A6
:100D20000424039346E601231C4300239B4601331E
:100D300060E60023802498460026924B240371E647
:100D4000012252420121C91A382900DD66E61F2915
:100D500000DCABE01F204042C31A5846D8400300D5
:100D6000202904D058468849514488400243511EE6
:100D70008A411A43072319000024114013420CD062
:100D80000F231340042B00D1F9E0111D91429B4128
:100D90000A005B4259075B021C0BD2080A439046CB
:100DA00000233FE680244B462403234209D05B46C0
:100DB000234206D11C4324032E009046714B240B82
:100DC00030E680244B4624031C432403029E6D4BD3
:100DD000240B27E6002B00D100E70098511E844623
:100DE0006444844200D284E0BC4200D2AEE000D130
:100DF000C1E00A00F0E6424500D92CE64B46DC078C
:100E0000580843465B081C434346DF072AE601F0C7
:100E10007FF815239C4684440200634620321C2B35
:100E200000DC2EE7230008388340994600239846CB
:100E300036E701F06DF802000300153220331C2A5A
:100E400000DCFBE600990838814000228B4602E76F
:100E50000099013B8C466444A14200D99AE6A24223
:100E600000D897E6831E644494E6AC466144013F93
:100E70008D4200D980E68A4200D87DE6871E614413
:100E80007AE6854200D05FE6B94500D95CE656E6D1
:100E9000A24200D81AE6831E644417E68A4200D8AC
:100EA00000E6AC46831E98466144FBE537481400D3
:100EB000504482405B4617008340CC407A1E9741E5
:100EC00023433B431A005B46CB40510709D00F2117
:100ED0001140042905D0111D9142924152429B18A4
:100EE0000A00190200D455E700220123002490468D
:100EF00098E50A00BC4200D06EE64B4500D06BE698
:100F00006CE6234B234A5344924500DA18E701214B
:100F100049420A1D8A42894149428B4466E60F21B3
:100F20001140042900D161E61100F2E7BC4200D86B
:100F30000AE602235B429C4600994F444F459B4181
:100F4000E3448C465B426344C018FFE54946009D7C
:100F5000480048458941AC46494261448146023ACD
:100F60006418C7E780245B4624031C43240390468F
:100F7000044B240B56E59945E8D30A00BDE700234E
:100F800008E7C046FF0700003E0400001E04000002
:100F9000FF03000002FCFFFFF0B55746DE464E4659
:100FA0004546E0B50D000400E80F83460903D80F5D
:100FB000090B824619488C461F0369005E00490DE3
:100FC0003F0B760D814218D086420FD00120B142EE
:100FD0000DD1BC450BD1944209D1D3451CD0002979
:100FE00005D160462043431E984100E00120F0BC3B
:100FF000BB46B246A946A046F0BD01208E42F6D1BE
:10100000614639430F0017432743F0D15B465246F0
:10101000981A431E9841EAE70020E8E7FF0700001E
:10102000F0B557464E464546DE46E0B50D000F0387
:10103000390B83B00400804601915800E90F314F0D
:10104000400D8C466E00190382469146760D090BC1
:10105000D80FBE421FD0BA450FD0002E2FD1554613
:10106000019E3443002D27D10A433AD0002C45D1AC
:1010700000281AD10120404217E011433BD1002E35
:1010800002D1019F2743F3D0844509D16346002B49
:10109000F0D0604609E0019F27432CD1B24524D00F
:1010A00063460220013B1840013803B0F0BCBB4648
:1010B000B246A946A046F0BD002CD9D0E4E754467C
:1010C000002CEDD08445EBD15645E9DCDEDB019BFD
:1010D0008B42E5D8DAD1C845E2D80020C845E4D231
:1010E000D4E70020002CE0D0DAE7114303D1844597
:1010F000D6D10020D9E702204042D6E78445E6D089
:10110000CEE7C046FF070000F0B557464E464546BD
:10111000DE46E0B50D000F0304008046E80F390BF2
:10112000844683B05800304F400D01911E03690082
:1011300082469146490D360BD80FB94220D0BA45A8
:101140000FD000292BD101990C435146002937D1EA
:10115000324338D0002C44D1002819D1012040421C
:1011600016E0164313D1002902D1019F2743F3D083
:10117000844520D063460220013B1840013807E037
:10118000019F274303D18A45F4D116431FD0022083
:1011900003B0F0BCBB46B246A946A046F0BD5446DB
:1011A000002CE7D08445E5D15145E3DC03DB019B0E
:1011B000B342DFD80FD06346002BCFD06046E7E7BD
:1011C000002CC9D0D4E70020002CE1D0D2E7844520
:1011D000D0D10020DCE7C845CCD80020C845D7D204
:1011E000E9E78445E3D0C5E7FF070000F0B55746BF
:1011F000DE464E464546E0B51F000B031B0B1600AE
:101200009A46CA0F4B000400934687B05B0D00D18D
:10121000D5E0BB4A934200D1F8E05146420FC900E5
:101220000A43802109041143C2009146B54A8A4607
:101230009D180023984602933C037B00FA0F300070
:10124000240B5B0D009200D196E0AD4A934231D061
:10125000720FE4002243802424041443A94AF000BE
:10126000944663445B195A1C0192424600260A2A9E
:1012700042DC5A4600994A4093464246022A32DCF2
:10128000013A012A00D949E1022E00D1CAE0012E1B
:101290003DD100230024002210005A461B052343A1
:1012A000D2071343190007B0F0BCBB46B246A946AB
:1012B000A046F0BD924B2643EB18002E00D1BBE0B8
:1012C0000322414611435A46884600994A408021EC
:1012D00009018C4629006144019141460A2900DD3B
:1012E00033E293460326424601279740A6213A005F
:1012F000C9000A400F4231D0029E022E00D135E2D1
:10130000032E00D1D2E154464846012EC1D0019AA5
:101310007D4B94466344002B00DCC0E0420709D0BB
:101320000F220240042A05D0021D82428041404221
:1013300024181000E20106D5744B019A1C4080234A
:101340009446DB006344724A93426BDC6207C00838
:1013500064025B050243240B5B0D9DE7902189002D
:101360000F4263D188223A4200D1D7E0009BA246C7
:101370009B4681460296BFE72300334300D17FE0BE
:10138000002C00D1ADE1200000F0C2FD02000300FE
:101390000B3A1D201900821A30000839D0408C40C9
:1013A0000443300088405B4AEB1A944663445A1C5D
:1013B0000192424600260A2A00DC5AE79CE753467F
:1013C0000343994654D05346002B00D177E1504651
:1013D00000F09EFD0B235B429C46020084441100FA
:1013E0005046083988401D23804660461B1A20005D
:1013F000D8400300404603439A4623008B40994659
:101400000023444D9846AD1A029315E75246024315
:10141000914626D100221D000223924608329046B2
:10142000029309E700240022354B35E7002380248E
:101430009B462403324B2FE7022241461143802270
:10144000120194462A006244884601920A2900DD6E
:1014500052E75A460020009904004A40934602266B
:101460000BE70C221D000323814690460293E3E61E
:1014700000239A4604339846033B00250293DBE69B
:10148000424601331A432B0090465A1C01924246B1
:101490000024002001260A2A00DCEAE62CE70122CB
:1014A000D21A382A00DDF4E61F2A00DC2AE11F21C7
:1014B0004942CB1A2100D9400B00202A05D0164AF8
:1014C000019D94466544AC402043421E9041184320
:1014D000072319000024014003420CD00F230340CE
:1014E000042B00D140E1031D8342A4411800644253
:1014F00061076402240BC20800230A43CCE6C046FD
:10150000FF07000001FCFFFFFF030000FFFFFFFEDD
:10151000FE0700000DFCFFFF3E04000049464A465E
:101520000904090C0D00160C020C0004000C4543C4
:10153000AC4605007543A84615000F0075430092A0
:1015400002952A00009D6F4365462D0CA94647442D
:101550004F44B84505D915008022520290464544B3
:1015600002953D0C039565462D043F042D0CAC46B9
:101570003D0065440495250C2404240CAC4625004C
:101580007543A84665460F00694341448946674351
:10159000390C49446E43884503D980225202904653
:1015A00046440D0CA846350045440595039D3F046F
:1015B000A8463F0C0904C919884445460395554679
:1015C0002E04360C2F0C35004543784381463800F5
:1015D000A8462D0CAA46009A504372434A445244EE
:1015E000914503D980256D02A9464844150CA946AA
:1015F00045462D042D0CA84665467D4312044844FB
:101600009044A9463200654662436E437C43170C02
:101610003619BF19BC4203D980246402A446E144B0
:10162000029C039EA446059D66448E428941AC46B9
:1016300012043C04120CA218624449425418464455
:10164000A4464645A44182466442A046AA4292412D
:101650008C458941E244D044494252420A43A04564
:10166000A44182458941644249420C4341463F0CB2
:10167000D2191219CC0D049970020843411E8841F9
:1016800041464A44F60D520230434902144308438E
:10169000D20135D50122430802401343E007184325
:1016A000640834E6009BA2469B468146802453464C
:1016B00024031C4324034A462E4B240BECE500F084
:1016C00027FC15239C4684440200634620321C2BD1
:1016D00000DC84E6002399462300083883409A46BC
:1016E0008EE600F015FC02000300153220331C2AA0
:1016F00000DC4EE602003400083A0020944052E636
:10170000019304E61C4B21009C460300019DD3403D
:101710006544A94019430300AB40581E8341194357
:101720000800D4404B0709D00F230B40042B05D0F1
:101730000B1D8B428041404224181800230200D424
:10174000D6E6012300240022A6E50F29AAD1802392
:1017500052461B031A42A9D01C42A7D11C43009B2E
:1017600002009B46034B97E50024C1E60024014B91
:10177000220091E5FF0700001E040000F0B54E4670
:101780004546DE465746E0B585B0009001910C0312
:101790004F00CE0F610A009CB046640F0C430099C5
:1017A0007F0DC80011001A001B039C460091019296
:1017B00051004B0D9946019B009DD90F63466A0F5E
:1017C0005B0A1343EA0094469346C14A039002938E
:1017D000914500D1CDE0012569404D467D1BAA46CB
:1017E0008E4200D180E0002D00DC35E3494600291F
:1017F00000D1DFE0974200D194E152460125382A1A
:1018000019DC8022029B12041343029352461F2AC2
:1018100000DDE3E1534620226146029DD21A954045
:10182000D9400D43614691400A00511E8A4115433B
:10183000029ADA40A41A451BA84280414042241A69
:10184000230200D43DE16402640A002C00D147E188
:10185000200000F05DFB0300083B20212800CA1A8D
:10186000D0409C4002009D4022439F4200DD77E132
:10187000D81B0130091A2C008D40C4406B1E9D41BD
:101880001300C2408B402543002714001D436B0703
:1018900009D00F232B40042B05D02B1DAB42AD41AB
:1018A0006D4264191D00230200D440E1884A0137CB
:1018B000974200D101E1012643468649ED082140C7
:1018C0004A072A437C054D022D0B640D1E4024055A
:1018D0002C43F60734431000210005B0F0BCBB4692
:1018E000B246A946A046F0BD002D00DCD0E2494634
:1018F000002900D0D4E06146029B194300D12BE1BE
:10190000691E012D00D1D9E1954200D10AE10125DE
:10191000382917DC8A4653461F2B00DDE7E12022D9
:10192000D21A029B614693401D005346D94063463C
:1019300093401A000D43511E8A4153461543029AA3
:10194000DA40A4182D188542804140422418230211
:1019500000D4B6E05E4B01379F4200D1ADE00121DB
:101960005C4B6A081C4029400A43E507154364089C
:101970008DE7594A029B92466246BA441A432CD0DC
:101980008E422ED05246002A60D0002F00D1DBE0DC
:1019900063460E00029CD80862070243E408130065
:1019A000234300D154E280252D0325432D03484CC9
:1019B0002D0B8CE76146029B194300D1CCE0290036
:1019C0000139012D00D188E1954200D1AAE001251D
:1019D000382900DD2FE78A4618E7012251408E4260
:1019E000D0D15346002B00D1BEE0002F00D038E10B
:1019F000CA462200024300D1E2E15346591E012BA0
:101A000000D10DE2324A924500D1D2E101273829B6
:101A100013DC1F2900DDEEE12022029B521A250073
:101A200007009A46CC4090409540CF40A244421EC9
:101A3000904153462F43074302933D00654465455B
:101A40009241029B52424F46D41880E7234A7D1CA4
:101A5000154200D0AAE062462500029B05431A43C6
:101A6000002F00D0F5E0002D00D16BE1002A00D15D
:101A700052E16346C51A029BE21AA8429B415B42AF
:101A8000D31A1A0200D4D5E163461D1AAC4592411F
:101A90000126029B52421C1B8846A41A0E40F6E601
:101AA00097423FD052460125382A00DD4AE780227E
:101AB000029B1204134302932DE73C0000250022F1
:101AC00005E707232B40002B00D0E2E66BE0C04681
:101AD000FF070000FFFF7FFF01F8FFFFFE07000088
:101AE000280000F015FA030018331F2B00DCB4E6C1
:101AF0002A00083882409F4200DDB9E0DB1B581CF9
:101B00001F2800DCA0E115001F3BDD40202805D088
:101B100040231B1A9A40531E9A411543072300275E
:101B20002B40D0E7C00862070243E40837E7EA0821
:101B300063071A43D34BE4089F4200D12FE72403E5
:101B4000250B7C05640DC2E6CA462200024358D12B
:101B500063460E00029C0393039B5746DA08E7E7AF
:101B6000C94CFF1A144092E6C84D7A1C2A4200D094
:101B700084E022000243002F00D0EFE0002A00D1D1
:101B8000E5E0624602990A4300D1C5E06346C51804
:101B90008C4685428041644440422418230202D589
:101BA000B94B01371C40BA460395D5E76246851A02
:101BB000A842924152429146029BE31A1A004B46B8
:101BC000D21A130091461A026CD44A464C462A4354
:101BD00000D03AE600260024002578E60299534614
:101BE0000D00203AD540202B06D04022D21A0B00FF
:101BF000934062461A4393465B465A1E93411D43E7
:101C000019E653465A1E012B00D1C6E09D4EB2453F
:101C100000D1BDE688460E000125382A10DC1F2AB7
:101C20007FDC20212500891A070088408D40D7409D
:101C3000D440411E8841029B3D431B1B0543029338
:101C40006246551BAC459241029B52424F469C1A3C
:101C5000F6E5002D00D0B7E0002A00D1F0E0012623
:101C60000E4063460298D90842070A43C40896E624
:101C7000854CFF1A14406207E40860E781498A42F4
:101C800000D1C9E06346C11881428041029B4042B5
:101C9000E3181B18DD075C08072349080D431700EC
:101CA0002B4010E763461D1AAC4592410126029B6A
:101CB00052421C1B8846A41A0E40C6E56346C5184E
:101CC000029B854280419C4640426444241801277F
:101CD000230200D4F5E6022741E66346C51AA8426E
:101CE0008041029B4042E41A0127241AA8E5029D84
:101CF00052462B00203AD34019005346202B06D0E1
:101D00004022D21A2B00934062461A4393465D4606
:101D10006B1E9D410D4315E66207C0080243E408AF
:101D20000DE7110027002039CF40202A05D040219F
:101D30008A1A9440250005430395039D6A1E954128
:101D40003D437DE7002A00D144E701260E4063466B
:101D5000D908029B5A070A43DC08F0E6002A28D07B
:101D60006246029FC0083A4300D1DCE66207104396
:101D70008022E4081203144209D0FD08154206D15E
:101D8000634601262C00D8087B0718430E40420FFB
:101D9000C000C0085207024301E663461D1AAC4565
:101DA0009241029B52421C1B0E0088460127A41A36
:101DB00046E56346D908029B5A070A43DC08EEE56C
:101DC0006346029C0393C7E6C008002A00D1AAE636
:101DD000620710438022E40812031442D7D0029F06
:101DE000FD081542D3D163460126D8087B072C0095
:101DF00018430E40CBE70A002700203AD74020299D
:101E000005D04022521A9440250005430395039DB6
:101E10006A1E95412F4310E614000025002256E566
:101E2000029B60449946604592414C4452420500F1
:101E3000A4184CE71A001C002A4300D0B3E6C9E6F8
:101E4000802400262403AEE520210025091A17E589
:101E5000002200250B4C3AE5002D00D1F6E54B465B
:101E6000DA1B9246002F00D16FE6382A05DC802667
:101E70003604344388460E00D1E688460E0001251C
:101E8000DEE6C046FF070000FFFF7FFFFE07000001
:101E9000002D00D168E64B46D91B002F01D18A46A0
:101EA000A7E50127382900DDC7E580221204144385
:101EB000AFE5C04670B5002816D0C317C5185D4001
:101EC000C40F280000F024F8104B1B1A5B055B0DB3
:101ED0000A2814DC02002E00153296400B22121A3A
:101EE000D5402D032D0B03E0002400230025002600
:101EF0001B052B43E40723433000190070BD0B384A
:101F000085402D0300262D0BF2E7C0461E0400007D
:101F10001C2101231B04984201D3000C10391B0A19
:101F2000984201D3000A08391B09984201D30009DD
:101F3000043902A2105C40187047C0460403020234
:101F400001010101000000000000000010B588B090
:101F50001422002103A800F050FE134B5A6980217F
:101F6000C9020A435A615A690A400192019A5A69A0
:101F7000802189020A435A615B690B400293029BEC
:101F80000A4C00220321200000F0B2FD032303933A
:101F9000023B049300230593069303A9200000F05D
:101FA000E3FC08B010BDC046001002400004004829
:101FB000F0B5DE4657464E464546E0B591B00F9126
:101FC000914600230E93002300240C930D940B9054
:101FD0008BE0029A039B00980199FFF7CFFB049ACC
:101FE000059BFEF75BF90090019122002B00200079
:101FF0002900FEF753F932003B00FFF7F7F8069A85
:10200000079BFEF74BF906000F0001239C46E044B6
:10201000009C019DC8451BDA22002B0020002900EE
:10202000FFF7E4F80090019132003B0030003900E6
:10203000FFF7DCF802000B0002920393009801996D
:10204000FEF72CF90022344BFEF70AF90028C0D124
:1020500043460893DB1709930C9B0D9C0899099A3A
:102060005B1854410C930D940A9B01330A930A9B0D
:102070000B9A934236DA0A98FFF71CFF04000D0012
:102080000B98FFF717FF02000B0020002900FEF756
:1020900069FC0022214BFFF7A9F80022204BFFF733
:1020A0006DFB049005915846FFF704FF04000D00F6
:1020B0005046FFF7FFFE02000B0020002900FEF74C
:1020C00051FC02000B00FEF7E9F80022154BFFF768
:1020D00055FB069007910023984600260027340000
:1020E0003D0097E70E9B01330E930E9B0F9A934290
:1020F00008DA00239A460E9B9B4653460A930F9B91
:102100009A46B4E70C980D9911B0F0BCBB46B246A4
:10211000A946A046F0BDC0460000104000000C409B
:10212000000004400000F03F72B6FEE700B591B039
:102130003022002104A800F060FD10220021684632
:1021400000F05BFD02230493013B07930F330893D8
:1021500004A800F09BF800280DD10723009300236A
:102160000193029303930021684600F007FB0028C7
:1021700003D111B000BDFFF7D7FFFFF7D5FF000077
:10218000F8B5CE46474680B500F0BAFBFFF7CEFF64
:10219000FFF7DCFE01220121254800F0A9FC002701
:1021A00037E0244BAA00D65800F0C6FB224B9946D4
:1021B0001860224BBC00E25831003000FFF7F8FEF7
:1021C00080460E0000F0B8FB1D4B18604B461B68A4
:1021D000C01A1C4BE4196419E4001B191860002292
:1021E0005A60194B1B1942461A605E60104C01225E
:1021F0000221200000F07CFCFA20800000F0A2FB0D
:1022000000220221200000F073FC0135042DC8DDFE
:102210000137042F01DC0025F8E7002201210448E2
:1022200000F066FC00220121014800F061FCF9E7A2
:102230000004004814000020580000200000002086
:10224000540000202801002060000020FEE7FEE787
:102250007047704710B500F063FB10BD82B00A4BA9
:10226000996901221143996199690A400092009A83
:10227000DA69802149050A43DA61DB690B40019381
:10228000019B02B07047C0460010024070B582B09A
:10229000041E00D12EE20368DB0726D5AE4B5A6838
:1022A0000C231340042B18D0AB4B5A680C2313405B
:1022B000082B0ED06368012B3CD0002B51D1A64BCC
:1022C0001A68A6490A401A601A68A5490A401A60A5
:1022D00036E0A14B5B68DB03ECD59F4B1B689B038F
:1022E00003D56368002B00D107E223689B0772D5F2
:1022F000994B5B680C221A425DD0974B5A680C23AD
:102300001340082B53D0E368002B00D185E0924A9C
:10231000136801210B43136000F00EFB05008E4B88
:102320001B689B0770D400F007FB401B0228F6D9FE
:102330000320E0E1884A116880235B020B431360AD
:102340006368002B25D000F0F7FA0500824B1B686C
:102350009B03CAD400F0F0FA401B6428F6D903208E
:10236000C9E1052B09D07C4B1A687C490A401A60E8
:102370001A687B490A401A60E2E7774B19688022A5
:10238000D2020A431A601968802252020A431A6074
:10239000D6E700F0D1FA05006F4B1B689B03A4D56C
:1023A00000F0CAFA401B6428F6D90320A3E16A4B67
:1023B0005B68DB03A7D4684B1B689B0703D5E36806
:1023C000012B00D09BE164490B68F82293432269FA
:1023D000D20013430B6023681B0744D5E369002B2D
:1023E0002ED05D4A536A01210B43536200F0A4FAD8
:1023F0000500594B5B6A9B0735D400F09DFA401BE2
:102400000228F6D9032076E153490B68F82293435A
:102410002269D20013430B60DDE74F4A13680121A4
:102420008B43136000F088FA05004B4B1B689B0739
:10243000D1D500F081FA401B0228F6D903205AE1D9
:10244000454A536A01218B43536200F075FA050037
:10245000414B5B6A9B0706D500F06EFA401B0228D1
:10246000F6D9032047E123685B0700D480E03A4BAC
:10247000DB69DB001DD4384BDA69802149050A434A
:10248000DA61DB690B400193019B0125354B1B6829
:10249000DB0510D5A368012B21D0002B36D12E4BA4
:1024A0001A6A01218A431A621A6A03318A431A623C
:1024B0001AE00025EAE72B4A116880235B000B43F2
:1024C000136000F039FA0600264B1B68DB05E1D4E7
:1024D00000F032FA801B6428F6D903200BE11E4A73
:1024E000136A01210B431362A368002B24D000F070
:1024F00023FA0600184B1B6A9B0737D400F01CFA1E
:10250000801B194B9842F5D90320F4E0052B09D024
:10251000114B1A6A01218A431A621A6A03318A43EB
:102520001A62E1E70C4B1A6A04210A431A621A6A1A
:1025300003390A431A62D7E700F0FEF90600064B9A
:102540001B6A9B0712D500F0F7F9801B064B9842D7
:10255000F5D90320CFE0C04600100240FFFFFEFF88
:10256000FFFFFBFF0070004088130000012D33D0F7
:102570002368DB0610D56369012B33D0053351D1B5
:10258000654A536B04218B435363536BF4318B4384
:10259000A169C9000B435363236A002B00D1B0E04B
:1025A0005D4A51680C220A40082A00D18AE0022BB9
:1025B0004FD0594A136859490B40136000F0BCF9D9
:1025C0000400554B1B689B017AD500F0B5F9001B40
:1025D0000228F6D903208EE04F4AD36950490B40B8
:1025E000D361C5E74C4B5A6B04210A435A635A6BBB
:1025F00003390A435A6300F09FF90500464B5B6BB1
:102600009B0706D400F098F9401B0228F6D9032056
:1026100071E041494B6BF8229343A269D200134306
:102620004B63B9E73C4B5A6B04210A435A635A6B1C
:1026300003398A435A6300F07FF90500364B5B6B20
:102640009B07A9D500F078F9401B0228F6D9032092
:1026500051E0314A136831490B40136000F06CF9C6
:1026600005002D4B1B689B0106D500F065F9401B4A
:102670000228F6D903203EE0274BDA6A0F218A436D
:10268000E16A0A43DA625A6826490A40A16A606A26
:1026900001430A435A601968802252040A431A60AF
:1026A00000F04AF904001C4B1B689B0106D400F0A3
:1026B00043F9001B0228F6D903201CE000201AE091
:1026C000002018E0012B1ED0134B5A68D86A8023D3
:1026D0005B021340616A8B4217D10F230340E16A0A
:1026E0008B4214D1F0239B031A40A36A9A4210D163
:1026F000002000E0012002B070BD0120FBE70120B6
:10270000F9E70020F7E70120F5E70120F3E70120D2
:10271000F1E70120EFE7C04600100240FFFFFFFE97
:10272000FFFFFFEFFFFFC2FF10B5104B5A680C23ED
:102730001340082B01D00E4810BD910C07331940EF
:102740000C48445C0949C96A0B400B49C95CD20377
:1027500004D50748FDF7D8FC6043EDE76201121B82
:1027600093019B1ADB001B191802E5E700100240D9
:1027700000127A00BC2C0008AC2C000870B50400D4
:102780000D00002800D17EE0434B1A68012313405E
:102790008B420AD240490B68012293432B430B60C2
:1027A0000B681A40AA4200D06FE023689A070ED542
:1027B0005B0705D5394A5168E023DB000B435360C2
:1027C000364A5368F0218B43A1680B43536023685A
:1027D000DB072DD56368012B1ED0022B22D02F4A98
:1027E0001268920753D52D494A6803208243134348
:1027F0004B6000F0A1F80600284B5B680C221A40E1
:1028000063689B009A4213D000F096F8801B244B1B
:102810009842F1D9032035E0204A12689203E2D4AD
:1028200001202FE01D4A12689201DCD4012029E02A
:10283000194B1A6801231340AB4209D916490B689A
:10284000012293432B430B600B681A40AA4220D10C
:1028500023685B0706D5114A536812490B40E168AB
:102860000B435360FFF760FF0C4B5A6812090F23AC
:1028700013400D4AD35CD8400C4B1860032000F085
:1028800017F8002070BD0120FCE70120FAE70120C5
:10289000F8E70120F6E7C0460020024000100240A1
:1028A00088130000FFF8FFFFCC2C00083000002048
:1028B00010B504000F4B1978FA208000FDF724FCB6
:1028C00001000D4B1868FDF71FFC00F067F90028A8
:1028D0000DD1032C01D901200AE001300022210092
:1028E000404200F057F9054B1C60002000E0012039
:1028F00010BDC04628000020300000202C00002021
:1029000010B5064A136810210B4313600320FFF72C
:10291000CFFFFFF7A3FC002010BDC04600200240FF
:10292000034A1168034B1B785B1813607047C0465D
:10293000F001002028000020014B18687047C046B5
:10294000F001002070B50400FFF7F6FF0500631CDE
:1029500002D0044B1B78E418FFF7EEFF401BA042A7
:10296000FAD370BD28000020F0B583B0002356E0F4
:1029700086685F000324BC40A643CC68BC40344357
:102980008460446894434E683609012232409A407C
:102990002243426053E0DE080836B600375805325D
:1029A0001A4092000F249440A7430C6994402200DF
:1029B0003A43325056E0032600E00026A640340099
:1029C0003C4302329200444E9451444A9768EA4391
:1029D0003E00AE434C68E40201D53E002E433F4C1E
:1029E000A660E7683E0016404C68A40201D53E0090
:1029F0002E433A4CE66067683E0016404C68A403DC
:102A000001D53E002E43354C6660266832404C6846
:102A1000E40301D52A003243304C226001330C68B4
:102A20002200DA4056D001229A4025001540144277
:102A3000F4D04E6803243440013C012C98D94C68F2
:102A400003222240032A08D0C4685E000322B24059
:102A500094438A68B2402243C2604C6803222240F9
:102A6000022A98D004685E0003221700B740BC43D6
:102A70004F683A40B240224302604C68C022920242
:102A80001442CBD0164CA66901221643A661A46954
:102A900022400192019A9A08941CA4000E4EA75954
:102AA00003241C40A4000F26A640B7439026F60539
:102AB000B04282D00B4EB04208D00B4EB04207D08D
:102AC0000A4EB04200D176E7052677E7012675E782
:102AD000022673E703B0F0BD00000140000401408E
:102AE000001002400004004800080048000C0048A4
:102AF000002A01D0816170478162FCE770B500282F
:102B000011DB8308134DC0339B005C590322104036
:102B1000C000FC3216008640B44389010A4082405E
:102B200022435A5170BD0F230340083B9B080633D4
:102B30009B00094A944663445C6803221040C0002D
:102B4000FC3215008540AC4389010A408240224393
:102B50005A60E7E700E100E000ED00E00138802383
:102B60005B0498420FD2094A50600948036A1B026D
:102B70001B0AC02109060B4303620023936007333D
:102B80001360002070470120FCE7C04610E000E021
:102B900000ED00E010B5FFF7B1FF10BD10B5FFF775
:102BA000DDFF10BD704700000D488546FFF7FAFFB6
:102BB0000C480D490D4A002302E0D458C450043398
:102BC000C4188C42F9D30A4A0A4C002301E013606E
:102BD0000432A242FBD300F019F8FFF7D1FAFEE766
:102BE000002000200000002034000020E42C000819
:102BF00038000020F4010020FEE703008218934211
:102C000000D1704719700133F9E7000070B5002654
:102C10000C4C0D4D641BA410A64209D1002600F0F7
:102C200019F80A4C0A4D641BA410A64205D170BDC8
:102C3000B300EB5898470136EEE7B300EB589847DE
:102C40000136F2E7DC2C0008DC2C0008E02C000840
:102C5000DC2C0008F8B5C046F8BC08BC9E4670479E
:0C2C6000F8B5C046F8BC08BC9E467047A2
:102C6C004C0A00083E0A00081C0A0008480A000822
:102C7C001C0A0008320D00081C0A0008480A00084B
:102C8C003E0A00083E0A0008320D0008480A0008F7
:102C9C00040A0008040A0008040A0008A40D00082D
:102CAC000102030405060708090A0B0C0D0E0F1090
:102CBC0002030405060708090A0B0C0D0E0F101071
:102CCC0000000000000000000102030406070809D0
:042CDC00E900000803
:042CE000C100000827
:102CE40064000000FA000000F4010000EE0200009D
:102CF400E803000080000000A0000000C000000005
:102D0400E0000000000100000100000004000000D9
:042D140000127A002F
:0400000508002BA91B
:00000001FF
